:020000040800F2
:100000000817002001010008DB1800085916000835
:10001000D918000833020008611F00080000000022
:10002000000000000000000000000000FF180008B1
:100030008D02000800000000FD1800086719000884
:100040001B0100081B0100081B0100081B01000820
:100050001B0100081B0100081B010008C902000861
:100060001B010008CF0200081B0100081B0100084B
:1000700035020008410200084D020008590200083C
:100080001B0100081B0100081B0100081B010008E0
:100090001B0100081B0100081B0100081B010008D0
:1000A0001B0100081B0100081B0100081B010008C0
:1000B0001B0100081B0100081B0100081B010008B0
:1000C0001B0100081B0100081B0100081B010008A0
:1000D0001B0100089D1E00081B010008DD1E000812
:1000E000C10200081B0100081B010008DFF80CD04A
:1000F00000F07EF800480047A525000808170020FA
:100100000648804706480047FEE7FEE7FEE7FEE7B1
:10011000FEE7FEE7FEE7FEE7FEE7FEE7E11900087F
:10012000ED000008202A04DB203A21FA02F0002129
:10013000704721FA02F3D040C2F1200291400843F7
:100140001946704740EA01039B0703D009E008C93C
:10015000121F08C0042AFAD203E011F8013B00F88C
:10016000013B521EF9D27047D2B201E000F8012BD8
:10017000491EFBD270470022F6E710B50446084638
:10018000114602462046FFF7EFFF204610BD2DE93D
:10019000F05F0546002092469B468846064681460B
:1001A00040241BE02846414647462246FFF7BAFF57
:1001B00052465B46801A994110D310461946224692
:1001C00000F028F82D1A67EB01084F46224601205F
:1001D000002100F01FF817EB00094E41201EA4F18A
:1001E0000104DFDC484631462A464346BDE8F09F1D
:1001F000064C074D06E0E06840F0010394E8070074
:1002000098471034AC42F6D3FFF774FF1829000862
:1002100038290008202A04DB203A00FA02F10020E5
:1002200070479140C2F1200320FA03F31943904034
:100230007047FEE7014800F0B1B800006C010020F3
:10024000014800F0ABB8000028010020014800F090
:10025000A5B80000E4000020014800F09FB80000AD
:10026000A000002030B5056C0124AC40C56B6C606B
:10027000046863604368102B036803D099600068CA
:10028000C26030BD9A600068C16030BD7047000038
:1002900070B54FF6FA75281A84B2084800F0ECFEE3
:1002A00006480068446201E0416A8CB2AC42FBD36C
:1002B000BDE87040014800F0ECBE0000BC12002018
:1002C0004FF4804000F0E8B9022000F0E5B90820C2
:1002D00000F0E2B901680A6822F00E020A600168C3
:1002E0000A6822F001020A60026CC36B012101FA64
:1002F00002F25A6080F82110002180F82010084690
:100300007047000010B590F821100024022903D096
:100310000421816301243DE001680A6822F00E0295
:100320000A6001680A6822F001020A601A4A01683C
:10033000914201D1012121E0174A1432914201D1A9
:1003400010211BE0144A2832914201D1891515E091
:10035000114A3C32914201D189140FE00E4A5032C9
:10036000914202D14FF4803108E00B4A643291424D
:1003700002D14FF4801101E04FF08071064A083A33
:100380005160012180F82110002180F82010416B7C
:1003900001B18847204610BD080002402DE9F05FFA
:1003A000C16B0B6801680C68056C042202FA05F247
:1003B000484FDFF824C1DFF82491DFF824A1DFF8EB
:1003C00024B1DFF824E11A422CD062072AD50A684A
:1003D000920603D40A6822F004020A600168B94256
:1003E00001D1042219E0614501D1402215E04945BF
:1003F00002D14FF4806210E0514502D14FF48042A7
:100400000BE0594502D14FF4802206E0714502D13C
:100410004FF4800201E04FF080622E4908394A60B3
:10042000C16A38E0022606FA05F61E424FF00008BF
:100430004FF0010234D0A60732D50B689B0605D4D5
:100440000B6823F00A030B6080F821200168B94291
:1004500001D1022219E0614501D1202215E0494570
:1004600002D14FF4007210E0514502D14FF4005216
:100470000BE0594502D14FF4003206E0714502D13C
:100480004FF4001201E04FF00072124908394A603F
:1004900080F82080816A002919D0BDE8F05F084704
:1004A000082606FA05F61E4211D023070FD50B6861
:1004B00023F00E030B60016CC36B02FA01F159606B
:1004C000826380F8212080F82080016BE3E7BDE89B
:1004D000F09F0000080002401C0002403000024073
:1004E00044000240580002406C00024030B5C8B3DE
:1004F00000F104001D4950F8043C4FF01402194467
:10050000B1FBF2F14FEA8101C163194981634FF0F8
:10051000020141771A6843F6F07122EA0102D0E93C
:10052000001441EA0401D0E9024544EA050441EA25
:100530000401046941EA0401446941EA040184694F
:1005400041EA040141EA020119604FF000014162F1
:100550008162C162016341634FF00102427701771A
:10056000084630BDFFE70120FBE70000F8FFFDBFB4
:100570000000024070B5044690F8200000250128D4
:100580000CD0012084F8200094F821600020012E76
:1005900006D084F820000225284670BD022070BDD8
:1005A000022684F82160A0632068066826F0010610
:1005B00006602046FFF756FEE06A002820680168C2
:1005C00002D041F00E0106E021F004010160206834
:1005D000016841F00A0101602068016841F00101F1
:1005E0000160D9E770B5044600F04AF90546601C81
:1005F00002D004480078044400F042F9401BA042B5
:10060000FAD370BD0C00002010B51F490522204C04
:100610004A801E4A022816D0082822D0B0F5804F02
:1006200010D10220087081031A4800F01FF940B36E
:100630005FF00001164814F8B22FBB301154207837
:10064000401C207010BD002008700121104600F0F1
:100650000DF920B100210E4822780930EEE7012182
:10066000F9E7012008700421104600F0FFF830B1CE
:100670005FF00001064814F8592F6230DEE70121CF
:10068000F8E70121D6E7000004000020000801403F
:10069000B0110020000C0140044910B50A68024264
:1006A00002D00860FFF7B0FF10BD00001404014045
:1006B0002DE9F04FDFF88CE10022DFF888B1154614
:1006C0004FF001094FF00F0A0EF10C0E0C6809FAF9
:1006D00005F63440B4426FD1DFF86CC14F68A7EB28
:1006E0000C0867452BD00DDC032F34D005DC37B365
:1006F000012F19D0022F2FD11BE0112F16D0122F4E
:100700002AD119E0B8F5881F19D006DCB8F5803F6A
:1007100015D0B8F5801F1FD111E0B8F5001F0ED01D
:10072000B8F5041F18D10AE0CA6815E0CA68121D9E
:1007300012E0CA6808320FE0CA680C320CE08A681E
:100740002AB1012A4FF0080203D0466104E00422D6
:1007500002E0066100E00022FF2C01D8034601E020
:1007600000F104034FEA850601D9A6F120061F68AF
:100770000AFA06FC27EA0C0702FA06F647EA060719
:10078000D0461F604B68DB0055D5304B9E6946F064
:1007900001069E619B692E4B25F0030606EB030CB8
:1007A000DCF80830AE07370F08FA07F6B343294ED6
:1007B000B04202D1002610E03DE0274EB04201D108
:1007C00001260AE0254EB04201D1022605E0244E62
:1007D000B04201D1032600E00426BE401E43CCF8FF
:1007E00008604B68DBF80060DB03002B5B4601DA36
:1007F000264300E0A6431E604B689B03002B194B69
:100800001E6801DA264300E0A6431E604B68DB0247
:10081000002B154B1E6801DA264300E0A6431E603C
:100820004B68DEF800609B02002B734601DA26431A
:1008300000E0A6431E606D1C102DFFF447AFBDE81D
:10084000F08F000000040140000011100010024071
:100850000000014000080140000C01400010014070
:10086000001401400404014008040140806808406D
:1008700000D0012070470AB1016170470904FBE70D
:1008800001488068704700000C00002070B504002B
:1008900011D021684CF6CC400860216845F25550D3
:1008A0000860D4E9000141602168A0688860FFF712
:1008B000E7FF054609E0012070BD00BFFFF7E0FF3C
:1008C000401B302801D9032070BD2068C068002873
:1008D000F4D121684AF6AA200860002070BD0068A3
:1008E0004AF6AA2101600020704700000248816892
:1008F00002781144816070470C000020074810B551
:10090000016841F010010160032000F08FF8002021
:1009100000F006F800F024F8002010BD002002408E
:1009200070B50D4D04464FF47A712878B1FBF0F0A4
:100930000A490968B1FBF0F000F032FB48B9102C0D
:1009400007D200222146501E00F050F800206C60B3
:1009500070BD012070BD00000C00002018000020B8
:100960001A4810B5816941F0010181618069032055
:1009700000F05CF8002211466FF00B0000F036F832
:10098000002211466FF00A0000F030F800221146F4
:100990006FF0090000F02AF800221146501F00F005
:1009A00025F800221146101F00F020F80022114601
:1009B000901E00F01BF800221146501E00F016F8A1
:1009C0000348416821F0E061416010BD0010024021
:1009D0000000014000F01F020121914040094FF04A
:1009E000E02202EB8000C0F800117047F0B40E4B1B
:1009F0001B680D46C3F30223C3F10706042E00D97A
:100A00000426191D072901D2002300E0DB1E012462
:100A100004FA06F1491E294099409C40641E144086
:100A20002143F0BC00F05ABF0CED00E0064900F095
:100A3000070208684FF6FF03184040EA0220034A05
:100A400010430860704700000CED00E00000FA055C
:100A50002DE9F047DFF83C8105460E46D8F8000046
:100A600000F00700B0420CD2D8F8001021F00701C6
:100A70003143C8F80010D8F8000000F00700B04279
:100A800063D12868444C800705D56068A96820F0C8
:100A9000F000084360602868C00745D068680128F6
:100AA00016D02168022816D0890700294DDA61681E
:100AB00021F0030101436160FFF7E2FE6968074628
:100AC00041F2883001290FD00229814619D027E050
:100AD00021688903E9E78901E7E700BFFFF7D0FE56
:100AE000C11B494501D918E081466068C0F3810007
:100AF0000128F3D118E000BFFFF7C2FEC11B494532
:100B00000BD86068C0F381000228F5D10CE000BF6B
:100B1000FFF7B6FEC11B494502D90320BDE8F087A7
:100B2000606810F00C0FF3D1D8F80010404601F0C7
:100B30000701B1420BD9016821F00701314301607F
:100B4000006800F00700B04201D00120E6E7286805
:100B5000400705D56068E96820F4E06008436060FC
:100B60002868000706D56068296920F4605040EACB
:100B7000C100606000F03CF86168084AC1F30311ED
:100B8000515CC840064908600020FFF7C9FE0020FC
:100B9000C4E700000020024000100240FE280008C8
:100BA000180000200148006870470000180000206D
:100BB0000448054900684968044AC1F30221515CB0
:100BC000C840704718000020001002400E2900089D
:100BD0000448054900684968044AC1F3C221515CD0
:100BE000C840704718000020001002400E2900087D
:100BF00014A185B0D1E90023D1E90201CDE90201B8
:100C000014A0CDE90023144A0068049051681348E9
:100C100001F00C03042B10D0082B0ED1C1F3834339
:100C2000C9031DF803000AD5516804AAC1F3404165
:100C3000515C0A4A5043B0FBF1F005B070470849D7
:100C40004843FAE702030405060708090A0B0C0DDE
:100C50000E0F1010010200000010024000127A0076
:100C600000093D002DE9F05F04460068B84DC0075B
:100C700048D06868C0F38100012807D06868C0F3D5
:100C80008100022809D16868C00306D5286880035E
:100C900038D5606800286FD034E06068B0F5803FD8
:100CA0000BD010B1B0F5A02F11D0286820F48030FF
:100CB0002860286820F4802002E0286840F4803012
:100CC0002860606888B1FFF7DBFD064609E0286808
:100CD00040F480202860F0E7FFF7D2FD801B6428F5
:100CE00074D828688003F7D50CE0FFF7C9FD0646E5
:100CF00005E000BFFFF7C4FD801B6428F0D828681A
:100D00008003F7D42068934E80074FF001094FF01D
:100D100000083BD5686810F00C0F07D06868C0F376
:100D20008100022809D16868C00306D428688007BA
:100D300014D5206901281FD110E02069B0B1C6F890
:100D40000090FFF79DFD074605E000BFFFF798FD07
:100D5000C01B0228C4D828688007F7D528686169B5
:100D600020F0F80040EAC10028600FE0C6F80080DB
:100D7000FFF786FD074606E0E7E000BFFFF780FDCE
:100D8000C01B0228ACD828688007F7D42068000769
:100D90002CD57148A169D1B1C0F80090FFF770FD62
:100DA000074604E0FFF76CFDC01B02280ED8686AF6
:100DB0008007F7D569484FF4FA510068B0FBF1F0AD
:100DC00000BF0100A0F10100FAD10FE07EE0C0F801
:100DD0000080FFF755FD074605E000BFFFF750FD17
:100DE000C01B022872D8686A8007F7D420684007C1
:100DF0005DD5E8690027C00005D4E86940F080505F
:100E0000E861E869012756480168C90512D40168FC
:100E1000834641F480710160FFF732FD824605E0B0
:100E2000FFF72EFDA0EB0A0064284FD8DBF8000086
:100E3000C005F5D5E06801280AD008B1052813D00F
:100E4000286A20F001002862286A20F0040002E0ED
:100E5000286A40F001002862E06841F2883B98B1BE
:100E6000FFF70EFD82460BE0286A40F0040028627E
:100E7000EEE700BFFFF704FDA0EB0A0159455CD87F
:100E8000286A8007F6D50CE0FFF7FAFC824605E0F9
:100E9000FFF7F6FCA0EB0A0159454ED8286A8007F7
:100EA000F6D4012F03D1E86920F08050E861E069B1
:100EB00090B36968C1F38101022946D00228C6F8BF
:100EC000608004D0FFF7DCFC044639E035E0FFF732
:100ED000D7FC074605E000BFFFF7D2FCC01B022885
:100EE0002BD828688001F7D4206AB0F5803F05D15F
:100EF0006868A16820F4003008436860D4E90801FC
:100F00000843696821F4741108436860C6F860906A
:100F1000FFF7B6FC044606E015E000BFFFF7B0FCA3
:100F2000001B022809D828688001F7D50BE000BF14
:100F3000FFF7A6FC001B022802D90320BDE8F09FA2
:100F400028688001F4D40020F8E70120F6E70000CB
:100F5000001002400000424280044242180000207B
:100F6000007000404FF0E0210428086903D020F011
:100F700004000861704740F00400FAE7074890F960
:100F80000010491C02D04188491E41804178012946
:100F900002D18188491E8180704700000400002032
:100FA00010B5401EB0F1807F01D3012010BD4FF07D
:100FB000E02460610F21601700F090FC0020A06128
:100FC00007202061002010BD10B5FFF7D7FF10BD2E
:100FD00030B590F83C20012A20D0012280F83C2036
:100FE000022380F83D3003685C6824F070045C6084
:100FF00003685C680D682C435C6003689C6824F09F
:1010000080049C6003689C6849680C439C6080F87D
:101010003D20002180F83C10084630BD022030BD44
:1010200010B5040003D094F83D0010B107E0012092
:1010300010BD002084F83C00204600F00DF802208E
:1010400084F83D00211D206800F0EEFC012084F8AA
:101050003D00002010BD000000680549884205D110
:101060000448C16941F00201C161C06970470000D4
:101070000004004000100240022180F83D10016889
:101080000A6842F001020A60012180F83D10002048
:101090007047022180F83D1001680A6A41F211137D
:1010A0001A4207D10A6A9B101A4203D10A6822F039
:1010B00001020A60012180F83D100020704770B5E0
:1010C000044690F83C00012817D0012584F83C50D4
:1010D000022084F83D002068826822F0770222F422
:1010E0007F4282600868502836D00DDC202859D015
:1010F00005DC80B3102840D151E0022070BD3028BB
:1011000053D0402839D13FE060282DD070280BD033
:10111000B0F5805F03D0B0F5005F2ED110E02068FD
:10112000816821F0070109E04A68083120680AC98E
:1011300000F0B0FC2068816841F0770181601CE01C
:101140004A68083120680AC900F0A4FC2068816858
:1011500041F48041F2E71FE0CA684968206800F066
:10116000ABFC5021206806E0CA684968206800F09E
:10117000B4FC6021206800F097FC04F13C04657029
:101180004FF00000207070BDCA684968206800F008
:1011900093FC40212068EEE700212068EBE7102156
:1011A0002068E8E720212068E5E730212068E2E7B1
:1011B00010B504460068416994F83920C1F3C011A4
:1011C000212A0BD151B1416921F080014161206B8D
:1011D00008B1FFF77FF8204600F0EFFC2068416976
:1011E00094F83A20C1F38011222A0BD151B1416900
:1011F00021F040014161606B08B1FFF76BF82046B8
:1012000000F0CDFC002010BD7047000070B50268F2
:1012100004461068D168536910F00F0F51D003F0E5
:10122000010501F4907635435DD0C20705D0CA05AB
:1012300003D5E26B42F00102E263420705D5DA070B
:1012400003D0E26B42F00202E263820705D5DA07BF
:1012500003D0E26B42F00402E263020705D5DA072D
:1012600003D0E26B42F00802E263E26B002A34D062
:10127000800604D5880602D5204600F0A7FC206829
:101280004069E16BC0F3801001F008010143204682
:1012900024D000F084FC2068416949061AD54169D0
:1012A00021F040014161606BA0B11B494163606B5B
:1012B000FFF728F8002810D0606B416BBDE8704044
:1012C000084783060FD58B060DD52046BDE8704034
:1012D00000F07CBC2046FFF797FF70BDFFF794FF3E
:1012E0000020E06370BD030606D50B0604D520463A
:1012F000BDE8704000F06EBD4006F3D54806F1D55C
:10130000D168204621F04001D160202184F83910B5
:1013100000F0A1F970BD0000FF1A000870B50400CC
:1013200004D094F83900002510B106E0012070BD0A
:1013300084F83850204600F023F8242084F839003F
:101340002068C16821F40051C160204600F08AFC89
:101350002068016921F4904101612068416921F010
:101360002A0141612068C16841F40051C160E56310
:10137000202084F8390084F83A00002070BD000075
:101380002DE9FF410446DFF854C1016854480222A8
:101390000323544E802700254FF0100861454BD1A0
:1013A000816941F48041816180694020CDE900027A
:1013B000694603933046FFF77BF9CDE9007569462E
:1013C00030460295FFF774F94748416841F0E06103
:1013D00041F004014160464E4448C6E90005C6E9B3
:1013E000025735617561B5613046F561FFF77EF8EA
:1013F00018B188213FA000F0F5FE666374623C4E90
:101400003A4844361438C6E9025735617561B5610A
:10141000F561C6E900083046FFF768F818B1982171
:1014200034A000F0DFFE2663002202212520746232
:10143000FFF7DCFA25204CE0DFF8C8C061454AD14F
:10144000C16941F48021C161C0694FF48060CDE978
:101450000002694603933046FFF72AF94FF4006013
:10146000CDE90005694630460295FFF721F9204E87
:101470001E4888362838C6E90005C6E90257356196
:101480007561B5613046F561FFF730F818B1C621D6
:1014900018A000F0A7FE66637462154E1348CC36A0
:1014A0003C38C6E9025735617561B561F561C6E939
:1014B00000083046FFF71AF818B1D6210DA000F049
:1014C00091FE26630022012127207462FFF78EFA25
:1014D0002720FFF77FFABDE8FF81000000380140B8
:1014E00000100240000C0140000001405800024082
:1014F000A00000202E2E2F5372632F75736172741B
:101500002E6300000048004037B5044690F83A00CA
:101510001346202838D1019A9AB393B394F838002F
:10152000012831D0012084F83800A262A38500256B
:10153000E563222084F83A00616B14488862616B8D
:101540001348C862616B13480863606B4563216888
:10155000606B091DFFF70EF820680168416884F888
:101560003850C16841F48071C1602068416941F020
:10157000010141612068416941F040014161002061
:101580003EBDFFE70120FBE70220F9E7591B0008F9
:10159000951B00080F1B0008704770472DE9F843A2
:1015A000044690F839000D4616461F46202850D1B3
:1015B000A5B19EB194F8380001284AD0012084F8E2
:1015C00038004FF00008C4F83C80212084F839002E
:1015D000FFF756F9A6848146E68426E00120BDE89F
:1015E000F883E08C401EE084A0684B46B0F5805F35
:1015F0004FF000024FF080012046009703D000F02A
:101600001AFCE8B90DE000F016FCC8B9288821687A
:10161000C0F308004860206908B16D1C05E0AD1CEE
:1016200003E0216815F8010B4860E08C0028D8D150
:101630004B46002240212046009700F0FCFB08B1F9
:101640000320CCE7202084F8390084F8388000207B
:10165000C5E70220C3E77047FEE70000144810B555
:10166000416941F0010141614069002211460C20AD
:10167000FFF7BCF90C20FFF7ADF9002211460D2051
:10168000FFF7B4F90D20FFF7A5F9002211460E204F
:10169000FFF7ACF90E20FFF79DF9002211460F204D
:1016A000FFF7A4F9BDE810400F20FFF793B9000041
:1016B000001002402DE9FF413048816941F02001CE
:1016C00081618169816941F0040181618169816978
:1016D00041F0080181618069DFF8A4804FF4487609
:1016E000002231464046FFF7C6F800240520CDE928
:1016F0000004244F694638460294FEF7D9FF224D74
:101700000A20CDE90005694602943846FEF7D0FF6D
:101710004FF48040CDE90005694602944046FEF74B
:10172000C7FF4FF40040CDE90004694640460294EB
:10173000FEF7BEFF0120CDE900600220039069465C
:101740004046FEF7B5FF002205210720FFF74EF9BE
:101750000720FFF73FF9002204210920FFF746F98F
:101760000920FFF737F9002203212820FFF73EF96F
:101770002820FFF72FF9BDE8FF810000001002408C
:10178000000C014000080140000011100A4810B58B
:10179000084901600021416040F6FF718160FFF758
:1017A00075F8002805D0BDE810403A2103A000F0EC
:1017B00019BD10BD00300040FC1200202E2E2F530A
:1017C00072632F697764672E6300000010B51748B5
:1017D00086B01549016047210024C0E901140121A8
:1017E000C0E903148461FFF71BFC18B13F2110A06E
:1017F00000F0F8FC4FF48050009069460B48FFF76A
:101800005EFC18B145210AA000F0ECFC049404A988
:1018100006480594FFF7DCFB002803D04C2104A008
:1018200000F0E0FC06B010BD00040040BC12002037
:101830002E2E2F5372632F74696D2E6300000000EB
:101840000D4810B50B4901604FF4964141600021ED
:1018500081600C22C160C0E904128161C161FFF79F
:101860005DFD002805D0BDE81040482103A000F030
:10187000B9BC10BD00380140200000202E2E2F538F
:1018800072632F75736172742E6300000D4810B57A
:101890000B4901604FF4E1314160002181600C226D
:1018A000C160C0E904128161C161FFF737FD002802
:1018B00005D0BDE810405B2103A000F093BC10BD33
:1018C00000480040600000202E2E2F5372632F75B9
:1018D000736172742E630000FEE770470907090EFA
:1018E000002803DA00F00F00024A00E0024A8154A7
:1018F0007047000014ED00E000E400E0704770471E
:1019000070B5012181F310880E4CC0074FF4C865F3
:101910000A4601D04E0201E04FF48076314620465F
:10192000FEF7A9FF3220FEF7B3FC00223146204625
:10193000FEF7A1FF2846FEF7ABFC002080F31088DD
:1019400070BD0000000C014070B505465FF000045A
:1019500005F08000C009FFF7D3FF6806050E641C80
:10196000082CF5DB70BD10B5FEF7C0FFBDE81040D8
:10197000FFF72ABB30B58FB00920012100904FF44A
:101980008030002404910691CDE901040225CDE9BF
:1019900007504FF4E01009906846FFF763F900B173
:1019A000FEE70F20CDE90A058020CDE90C040221D5
:1019B0000AA80E94FFF74CF800B1FEE7FFF7F2F823
:1019C0004FF47A71B0FBF1F0FFF7EAFA0420FFF769
:1019D000C9FA00221146501EFFF708F80FB030BDBB
:1019E0000D48016841F00101016041680B4A114056
:1019F000416001680A4A11400160016821F48021B8
:101A00000160416821F4FE0141604FF41F018160D3
:101A10000449C00308607047001002400000FFF84E
:101A2000FFFFF6FE08ED00E0F0B50268164B174C1C
:101A3000174D4FF08046984205D0B04203D0A042E7
:101A400001D0A84203D122F070074A683A43984275
:101A500005D0B04203D0A04201D0A84203D122F465
:101A60004074CA68224322F080044A69224302601B
:101A70008A68C2620A688262984201D10969016378
:101A800001214161F0BD0000002C01400004004034
:101A90000008004010B5846842EA032224F47F4421
:101AA0000A432243826010BD826822F070020A431A
:101AB00042F007018160704710B5046A036A23F0A1
:101AC00001030362836923F0F00343EA021324F065
:101AD0000A020A438361026210BD10B5036A23F053
:101AE000100303628469036A24F4704444EA0232F6
:101AF00023F0A00343EA01118261016210BD10B519
:101B0000406A0021C185C184FFF77EFB10BD70B51E
:101B1000446A2068406994F83910C0F3C010002569
:101B2000212904D118B1E584204600F046F8206848
:101B3000406994F83A10C0F38010222904D118B1FA
:101B4000E585204600F02BF8E06B40F01000E063E4
:101B50002046FFF759FB70BD10B50146406A096881
:101B60000968890613D40021C1850168CA6822F476
:101B70008072CA6001684A6922F001024A61016804
:101B80004A6922F040024A61202180F83A10FFF7AA
:101B900003FD10BD10B5406AFFF7FFFC10BD0168E2
:101BA000CA6822F49072CA6001684A6922F0010290
:101BB0004A61202180F83A1070470168CA6822F013
:101BC000C002CA60202180F83910704710B590F823
:101BD0003A10222901D0022010BD8168B1F5805F42
:101BE00011D00169002901681FD0496801F07F0305
:101BF000816A4A1C82620B70C18D491E0904090C5E
:101C0000C18518D02BE00269816A002A02685268F7
:101C100005D0D2B20A80816A491C8162ECE7C2F326
:101C200008020A80816A891CF7E74A68816A4B1CAE
:101C300083620A70E0E70168CA6822F02002CA6085
:101C40000168CA6822F48072CA6001684A6922F099
:101C500001024A61202180F83A10FFF79DFC002024
:101C600010BD00002DE9F041044600680169E268FA
:101C700021F44051114301612169A06822680843A1
:101C800061690843D16841F20C6399430143D16013
:101C900020684169A26921F44071114341614C49B6
:101CA00020686425322688423CD1FEF791FF00EB84
:101CB000C00101EB001061688900B0FBF1F7FEF78D
:101CC00087FF00EBC00101EB00106168B04689009E
:101CD000B0FBF1F0B0FBF5F06FF01801484307EBF3
:101CE000800106EB0110B0FBF5F000F0F006FEF706
:101CF0006FFF00EBC00101EB001061688900B0FBD1
:101D0000F1F0B0FBF5F006EB0016FEF761FF00EB1B
:101D1000C00101EB001061688900B0FBF1F7FEF72C
:101D200057FF3BE0FEF744FF00EBC00101EB001062
:101D300061688900B0FBF1F7FEF73AFF00EBC001E4
:101D400001EB00106168B0468900B0FBF1F0B0FB18
:101D5000F5F06FF01801484307EB800106EB011026
:101D6000B0FBF5F000F0F006FEF722FF00EBC0013B
:101D700001EB001061688900B0FBF1F0B0FBF5F0F9
:101D800006EB0016FEF714FF00EBC00101EB00109C
:101D900061688900B0FBF1F7FEF70AFF00EBC001B4
:101DA00001EB001061688900B0FBF1F0B0FBF5F0C9
:101DB0006FF01801484307EB800108EB0110B0FBFE
:101DC000F5F0216800F00F0030448860BDE8F08134
:101DD0000038014090F83910212901D002207047C5
:101DE0008168B1F5805F016A0BD04A1C026202680B
:101DF00009785160C18C491E0904090CC1840ED0B8
:101E000017E009880268C1F30801516001690029DF
:101E1000016A02D0491C0162ECE7891CFBE70168FA
:101E2000CA6822F08002CA600068C16841F04001BF
:101E3000C160002070472DE9F04104460E46174668
:101E40009846069D1DE0681C1BD02DB1FEF718FDBD
:101E5000A0EB0800A84214D92068C16821F4D07111
:101E6000C1602068416921F001014161202084F8AE
:101E7000390084F83A00002084F838000320BDE8D7
:101E8000F0812068006836EA000004D00020B842E3
:101E9000D9D00020F3E70120F9E7000010B50C4885
:101EA000FFF7B4F90A4800680168C1F3001100297E
:101EB0000DD001684168016840680548FFF778F96E
:101EC0000448006840680449C0F50060088010BDFF
:101ED00020000020A00000200200002010B50B48C8
:101EE000FFF794F9094800680168C1F3001100295F
:101EF0000BD0016840680548FFF75AF904480068AC
:101F000040680449C0F50060088010BD60000020F2
:101F100028010020000000200E4810B50068C168AC
:101F200041F01001C1604FF4006422460A4909489B
:101F3000FFF7EAFA074840380068C16841F010012D
:101F4000C16022460549BDE81040A1F51960FFF7C0
:101F5000DBBA000060000020B0010020B0090020C2
:101F6000FEE7000070B50446002102780846D3075A
:101F700001D0491CC9B2401C5208C0B20828F6D38F
:101F80006578002005F0F002D30701D0491CC9B2E2
:101F9000401C5208C0B20828F6D3C80701D001235C
:101FA00000E00023002105F00F000A46C50701D01C
:101FB000491CC9B2521C4008D2B2082AF6D3A278F2
:101FC0000020D50701D0491CC9B2401C5208C0B23C
:101FD0000828F6D3C80701D0002500E001251846DF
:101FE000FFF78EFC2078FFF7AFFC6078FFF7ACFCC2
:101FF000A078FFF7A9FC2846FFF782FC03A000F0B9
:10200000F3F8BDE870400320FEF7ECBA57473236CC
:102010000A00000070B50446002022780146D3076C
:1020200001D0401CC0B2491C5208C9B20829F6D3DD
:1020300062780021D30701D0401CC0B2491C52086D
:10204000C9B20829F6D3C00701D0012300E000235C
:102050000020A2780146D50701D0401CC0B2491C1F
:102060005208C9B20829F6D3E2780021D50701D079
:10207000401CC0B2491C5208C9B20829F6D3C00797
:1020800001D0002500E001251846FFF739FC207833
:10209000FFF75AFC6078FFF757FCA078FFF754FC75
:1020A000E078FFF751FC2846FFF72AFC03A000F078
:1020B0009BF8BDE870400320FEF794BA57473334CD
:1020C0000A00000070B50446002022780146D307BC
:1020D00001D0401CC0B2491C5208C9B20829F6D32D
:1020E00062780021D30701D0401CC0B2491C5208BD
:1020F000C9B20829F6D3A2780021D30701D0401C29
:10210000C0B2491C5208C9B20829F6D3E2780021AE
:10211000D30701D0401CC0B2491C5208C9B20829DB
:10212000F6D3C00701D0012300E00023002022796C
:102130000146D50701D0401CC0B2491C5208C9B2A3
:102140000829F6D362790021D50701D0401CC0B21E
:10215000491C5208C9B20829F6D3A2790021D50733
:1021600001D0401CC0B2491C5208C9B20829F6D39C
:10217000E2790021D50701D0401CC0B2491C5208A9
:10218000C9B20829F6D3C00701D0002500E0012517
:102190001846FFF7B5FB2078FFF7D6FB6078FFF70E
:1021A000D3FBA078FFF7D0FBE078FFF7CDFB2079D9
:1021B000FFF7CAFB6079FFF7C7FBA079FFF7C4FB05
:1021C000E079FFF7C1FB2846FFF79AFB03A000F078
:1021D0000BF8BDE870400320FEF704BA57473636C7
:1021E0000A000000FEE700000FB4054B10B503A97C
:1021F000044A029800F018F810BC5DF814FB0000C7
:10220000892500081C00002002E008C8121F08C130
:10221000002AFAD170477047002001E001C1121F67
:10222000002AFBD1704700002DE9FF4F8DB0044616
:102230009B460F46002641E1252801D00F9963E017
:102240000025641CA14AA84601212378203B01FAFD
:1022500003F0104202D00543641CF6E720782E28D4
:1022600017D114F8010F45F004052A280ED06FF09D
:102270002F022078A0F1300109290AD808EB880143
:1022800002EB410100EB0108641CF2E757F8048BF4
:10229000641C20786C280DD004DC4C2812D06A28ED
:1022A00011D104E074280DD07A280CD10AE045F44D
:1022B000001507E0617845F48015814202D1641C65
:1022C00005F58015641C94F800C0BCF1690F4DD071
:1022D0000CDCBCF1000F6ED0BCF1580F6FD0BCF11C
:1022E000630F16D0BCF1640F0CD13FE0BCF1700F4E
:1022F0006AD0BCF1730F15D0BCF1750F5DD0BCF185
:10230000780F5CD00F9960465A46904706F1010657
:10231000D3E001CF8DF8000000208DF80100E946E0
:10232000012003E057F8049B4FF0FF3069074FF09E
:10233000000501D40AE06D1C45450DDA8542FADB43
:1023400019F805100029F6D106E06D1C8542FCDB6A
:1023500019F805100029F8D12E4404E019F8010BF2
:102360005A460F9990476D1EF8D2A6E00A20002128
:10237000CDE90801C5F3025002280AD001CFC117E8
:1023800000290DDA0023D0EB030063EB01012D22BD
:1023900009E007F1070727F00707F7E80201EFE771
:1023A0002A0504D52B228DF82820012230E0EA07E7
:1023B0002ED02022F7E785E001E00A2000E010207F
:1023C0000021CDE9080107E01020002145F00405B7
:1023D000CDE908014FF00808C5F3025002281CD0CF
:1023E00001CF00214FF0000A2A0712D5BCF1700F6F
:1023F00019D0DDE9083283F01003134309D150EA04
:10240000010206D030228DF828208DF829C0022242
:102410009246BCF1580F10D00AE0FF1D27F00707C5
:10242000F7E80201DEE740228DF828204FF0010A8C
:1024300027A20DF120090B9209E02AA2F9E7DDE9B4
:102440000823FDF7A4FE0B9B9B5C09F8013D50EAB5
:102450000102F4D1ADEB090000F1200008906807FB
:1024600001D44FF001080899884502DDA8EB01006E
:1024700000E000208046002506E00AA85A46405D9C
:102480000F999047761C6D1C5545F6DB04E0302013
:102490005A460F999047761CB8F10001A8F101083F
:1024A000F5DC05E019F8010B5A460F999047761CA8
:1024B0000899481E08900029F4DC641C2078002844
:1024C0007FF4BAAE11B03046BDE8F08F09280100A4
:1024D000303132333435363738396162636465669A
:1024E000000000003031323334353637383941425C
:1024F00043444546000000000FB4002030B503AB54
:102500009DF80C201A991A2A04D0222A17D0422AA0
:1025100012D126E05FF0010202EBC0041C44C2F1BC
:102520000805647AAC400D5C521C2C440C54092AFA
:10253000F2DB401C0328EDDB30BC5DF814FB01220C
:1025400002EBC0041C44C2F10805647AAC400D5C87
:10255000521C2C440C54092AF2DB401C0428EEDBEC
:10256000EAE7012202EBC0041C44C2F10805647AC8
:10257000AC400D5C521C2C440C54092AF2DB401C6C
:102580000828EEDBD8E7000038B504468DF80000D7
:102590000223012269460248FFF700F8204638BDB1
:1025A00060000020FEF7AAF9FFF7E4F9FFF782F8D0
:1025B000FFF754F8FFF76AF9FFF742F9FFF706F95A
:1025C000FFF7E4F8FFF7A8FC032000F0D9F807A014
:1025D000FFF70AFE074C0848FEF781F9B4F902003C
:1025E0000028F8DA00F00AF8F5E700007374617269
:1025F000740A000004000020FC12002070B5ACB08A
:10260000012080F310884B4D4BA095F90010FFF787
:10261000EBFD95F9000059214A4C4843215C4AA042
:10262000FFF7E2FD002606E020443044417A49A04D
:10263000FFF7DAFD761C95F9000059214843215C2B
:10264000B142F1DA4448FEF74AF995F90000592100
:1026500001FB004606F1100149226846FDF772FDB4
:102660005922314613A8FDF76DFD13AE0FCE00F0D1
:10267000CFF8012809D039A0FFF7B6FD95F9000081
:1026800000F07EF800202CB070BD95F900005921B3
:1026900000FB0146701C139006F1100149226846A8
:1026A000FDF750FD5922314614A8FDF74BFD14AE3D
:1026B0000FCEFFF721FF2DA0FFF796FD002606E0C5
:1026C0002044304441782BA0FFF78EFD761C95F90D
:1026D000000059214843215CB6EBD10FF0DB22A06A
:1026E000FFF782FD24A0FFF77FFD1B48FEF7F7F8F8
:1026F00095F9000059214843215C1A2904D0222968
:1027000007D042290ED109E02044401CFFF72AFCE3
:1027100008E02044401CFFF77DFC03E02044401CFF
:10272000FFF7D0FC032000F02BF8002080F3108886
:102730000120A8E7040000200A6C696E65203D2096
:1027400025640A00B01100200A6C656E203D20252A
:10275000640A000025642000FC120020566572699E
:102760006679204572726F720A00000044617461DC
:10277000203D20002578200073656E640A0000006B
:102780002DE9F04105461F48FEF7A9F81E4E00242A
:10279000032D11D24FF0590005FB00F505EB0600A3
:1027A0004FF04201C0F80140C0F8054000F10900B7
:1027B000FDF7E1FC745517E016D14FF0000500BF9E
:1027C0004FF0590005FB00F707EB06004FF0420100
:1027D000C0F80140C0F8054000F10900FDF7CBFC4E
:1027E0006D1CF455032DEBDB0848FF21017044708C
:1027F0000521418041F28831818084F31088BDE851
:10280000F0810000FC120020B01100200400002024
:102810000FB40021F0B5481E9DF814409DF81D50DE
:1028200046000A4605AB1A2C07D0222C24D0422C95
:1028300044D00020F0BC5DF814FB01241F197F7AFE
:1028400007B1491C641C0C2CF8DD01EBD17424F099
:102850000104091BA942EDD10D201918497A01B1D3
:10286000521C401C1828F8DD02EBD27020F0010049
:10287000101A9DF836101DE001241F197F7A07B148
:10288000491C641C102CF8DD01EBD17424F0010408
:10289000091BA942CED111201918497A01B1521C45
:1028A000401C2028F8DD02EBD27020F001009DF8DA
:1028B0003E10101A884220D13046BBE701241F1970
:1028C0007F7A07B1491C641C202CF8DD01EBD17420
:1028D00024F00104091BA942ACD121201918497A1E
:1028E00001B1521C401C4028F8DD02EBD27020F0F0
:1028F0000100101A9DF85E10DCE701209AE7000045
:10290000000000000000010203040607080900009F
:102910000000010203040000382900080000002024
:10292000200000000822000858290008200000208C
:10293000E816000018220008000000000000000057
:102940000000000001000000100000000000000076
:0829500000A24A04000000008F
:04000005080000ED02
:00000001FF
