:020000040800F2
:10000000D00A0020010100087727000871250008A8
:100010007527000865090008153200080000000077
:10002000000000000000000000000000B52C0008E7
:100030005B0B0008000000004B2B0008C12D0008DE
:100040001B0100081B0100081B0100081B01000820
:100050001B0100081B0100081B0100081B01000810
:100060001B0100081B0100081B0100081B01000800
:100070001B0100080D0B00081B010008190B0008EC
:10008000250B00081B0100081B0100081B010008CC
:100090001B0100081B0100081B0100081B010008D0
:1000A0001B0100081B0100081B0100081B010008C0
:1000B0001B0100081B0100081B0100081B010008B0
:1000C0001B0100081B0100081B0100081B010008A0
:1000D0001B0100083D31000885310008CD310008C2
:1000E0001B0100081B0100081B010008DFF80CD0F1
:1000F00000F026FC00480047C13D0008D00A00205F
:100100000648804706480047FEE7FEE7FEE7FEE7B1
:10011000FEE7FEE7FEE7FEE7FEE7FEE7112E00083A
:10012000ED000008202A04DB203A21FA02F0002129
:10013000704721FA02F3D040C2F1200291400843F7
:1001400019467047D2B201E000F8012B491EFBD2DC
:1001500070470022F6E710B513460A4604461946D2
:10016000FFF7F0FF204610BDF0B480EA0102D40F83
:100170004200B2EB410F02D20246084611464A0045
:1001800042D0C30DDDB2C1F3C752AD1A202D35DA0E
:10019000C1F3160141F4000204B15242C5F1200638
:1001A00002FA06F12A411044B3EBD05F23D0C4B168
:1001B000012DA0EBC35009DCF0BC4FF0004202EA75
:1001C000C352DBB200F5000000F0FEBA400000F1BF
:1001D000807000EBC350A0F1807040EAD1704900FC
:1001E00009E0490841EAC071A0EBC35000F50000E6
:1001F000400800EBC350F0BC00F0DDBA61420122C0
:1002000002EB4101001BF6E7F0BC704781F00041B2
:10021000AAE780F00040A7E780EA010210B502F0EB
:100220000043400022D04A001FD0010E01EB1261B2
:10023000C0F35600C2F3560240F4000042F400023C
:10024000A0FB022000047F39140400D0401C50EAB7
:10025000124001D44000491EC2B20C0604EBD0107B
:10026000401C4008802A02D003E0002010BD20F08E
:100270000100002900DA0020184310BD30B480EAE4
:10028000010202F0004530F0004221F0004013D09E
:1002900090B1C30DD40DC2F31601C0F31600E41AD9
:1002A00041F4000140F400027D34914201D3641C0A
:1002B00000E04900002C02DA30BC002070474FF407
:1002C00000000023914201D3891A034340084FEAFA
:1002D0004101F7D151B1914202D14FF0004105E007
:1002E00002D24FF0010101E06FF0010103EBC450B5
:1002F000284430BC00F05FBA2DE9FE4F804681EA09
:100300000300C00F0C46009021F0004123F000458F
:10031000B8EB0200A94105D24046214690461C4652
:100320000B46024623F00040104347D0270DC7F389
:100330000A00C3F30A510290401A019040286BDA78
:10034000C3F3130040F4801B0098924620B10023B1
:10035000D2EB030A63EB0B0B01985946C0F1400244
:10036000504600F007FA06460D4650465946019A97
:1003700000F00FFA10EB08006141002487EA1152E7
:1003800084EAE7731A4340D0009A62B3019A012AC3
:100390004FEA075215DC001B61EB02014FF00042EF
:1003A00002EA0752CDE90042001C41F580113246B5
:1003B0002B4600F046FA03B0BDE8F08F40462146D8
:1003C000F9E7001B61EB0201001C41F580130018E6
:1003D0005B412018A2F5001747EB030140EAD570F6
:1003E000B6196D4111E06D084FEA360645EAC07551
:1003F0004FEA0752001B61EB0201001C41F580111E
:1004000049084FEA30000019514132462B4603B0EB
:10041000BDE8F04F00F006BA00980122400000232A
:10042000D0EB020263EBE073009821464FEAE074E0
:10043000B8EB000061EB0401E9E783F000435BE700
:1004400081F0004158E72DE9FE4F81EA030404F0F2
:10045000004421F0004100944FF0000B23F00043D2
:1004600050EA01045ED052EA03045BD0C3F30A549D
:10047000C1F30A552C44A4F2F3340194A0FB0254B6
:10048000C1F3130141F48011C3F3130343F4801348
:1004900001FB024400FB034E840A970A44EA81549C
:1004A00047EA8357A4FB076802958D0A05FB078579
:1004B0004FEA932C04FB0C542705029D4FEA065883
:1004C00047EA1637B5EB08056EEB070C870E920E60
:1004D00047EA811742EA8312A7FB0201B6EB0B0140
:1004E00064EB00042B0D43EA0C335E1844EB1C5004
:1004F000DA465146E7FB0201C5F313044FEA0B331A
:1005000043EA14534FEA0432019C43EA0603A4F180
:100510000C040294009CCDE900B400F092F903B001
:10052000BDE8F08F00200146F9E72DE9F04D81EAA2
:10053000030404F0004B21F0004514464FF0000A7C
:1005400023F0004150EA050220D054EA01021DD0F8
:10055000C5F30A570246C5F31303C1F31300C1F3F1
:100560000A5640F4801543F48013A7EB0608101BCD
:10057000D64608F2FD3873EB050002D308F10108F6
:1005800001E092185B41B8F1000F03DA0020014648
:10059000BDE8F08D00204FF48011064684460EE041
:1005A000171B73EB050705D3121B63EB050306430B
:1005B0004CEA010C49084FEA300092185B4150EABE
:1005C0000107EDD152EA030012D082EA040083EA67
:1005D0000501084305D0101BAB4106D201220023C0
:1005E00006E000224FF0004302E06FF001025310DA
:1005F0001AEB06004CEB085110EB0A0041EB0B0123
:10060000BDE8F04D00F00EB9C10F80EAE07008447B
:10061000CA079623002100F0D7B89623002211467E
:1006200000F0D2B80EB5C10F80EAE0700844CA07E6
:10063000002140F233438DE80E000A460B4600F0DD
:1006400000F903B000BD0EB540F233410291002124
:10065000CDE900110A460B4600F0F3F803B000BDE7
:1006600020F00040C10DC0F3160040F400007F29C7
:1006700001DA00207047962903DCC1F19601C840D9
:10068000704796398840704700F0004230F00040D3
:100690000AD0C10D01F56071C0F3160042EA0151A4
:1006A000C20840071143704700200146704701F01F
:1006B000004330B421F0004150EA010206D00A0D97
:1006C000A2F56072C1F31301002A02DC30BC0020E5
:1006D0007047440F44EAC104C100E01830BC00EB8D
:1006E000C25000F068B830B50B4601460020202209
:1006F000012409E021FA02F59D4205D303FA02F52F
:10070000491B04FA02F52844151EA2F10102F1DC8E
:1007100030BD2DE9F05F0546002092469B46884695
:100720000646814640241BE028464146474622466D
:10073000FFF7F8FC53465A46C01A914110D31146B0
:100740001846224600F016F82D1A67EB01084F46AE
:1007500022460120002100F00DF817EB00094E4160
:10076000201EA4F10104DFDC484631462A464346F8
:10077000BDE8F09F202A04DB203A00FA02F10020B5
:1007800070479140C2F1200320FA03F319439040CF
:100790007047202A06DBCB17203A41FA02F043EAE1
:1007A000E07306E041FA02F3D040C2F1200291402A
:1007B0000843194670470029A8BF7047401C4900EC
:1007C00008BF20F00100704710B4B0FA80FC00FAB6
:1007D0000CF050EA010404BF10BC704749B1CCF1E1
:1007E000200421FA04F411FA0CF118BF012121436D
:1007F0000843A3EB0C01CB1D4FEA00614FEA102028
:1008000042BF002010BC704700EBC35010440029C9
:10081000A4BF10BC7047401C490008BF20F0010075
:1008200010BC704710B5141E73F1000408DA401CA8
:1008300041F1000192185B411A4301D120F00100FF
:1008400010BD2DE9F04D92469B4611B1B1FA81F2EF
:1008500002E0B0FA80F220329046FFF78BFF0446A8
:100860000F4640EA0A0041EA0B0153465A46084344
:1008700013D0114653EA010019D0C8F14002504686
:10088000FFF750FC05460E46504659464246FFF7D4
:1008900071FF084305D0012004E020463946BDE839
:1008A000F08D0020054346EAE0762C4337430A9852
:1008B0006305E40AA0EB08000022FD0A44EA47545D
:1008C0000A3002D500200146E9E701051019694107
:1008D000DDE9084500196941BDE8F04DA2E7C1F323
:1008E0000A52C1F3130140F2FF3341F480119A42DE
:1008F00002DA00200146704740F233439A42A2F2E6
:10090000334202DC5242FFF70DBCFFF733BF000059
:1009100030B5041E71F1000404DB4FF00044404286
:1009200064EB0101141E73F1000405DB1C464FF05B
:100930000043524263EB0403994208BF904230BD2A
:10094000064C074D06E0E06840F0010394E807001C
:1009500098471034AC42F6D3FFF7CCFB4C43000869
:100960006C430008FEE700002DE9F04126480668C8
:10097000083031460068FFF749FC04462248103031
:100980000568083029460068FFF740FC2146FFF75C
:1009900075FCFFF765FE1C4F80B20C3F3880FFF7F7
:1009A0003CFE04463146FFF737FC2946FFF731FC91
:1009B000FFF756FE81B207F12C05798026460846DE
:1009C0002C60FFF72AFE05F10804324620600F482C
:1009D0002988018569884185A9888185E988C1853B
:1009E0002188018661884186A1888186E188C18647
:1009F0000821032002F0CAF92268BDE8F04109216C
:100A0000032002F0C3B9000024000020800200206F
:100A10002DE9F0410E46074615460421052000F059
:100A20002AF80021012002F0F9FC80210A2002F0BE
:100A300058F9002405E0395D092002F0EFFC641C40
:100A4000E4B2B442F7D30321012002F0E7FCFF2413
:100A5000052002F07BF8641E14F0FF0401D040076B
:100A6000F6D5222002F072F82870212002F06EF8EC
:100A70006870BDE8F08170B50C46054602F066F876
:100A800020EA04012846BDE8704002F0C7BC2DE909
:100A9000F04104464078B4F80310A77891FA91F831
:100AA000B4F80510E5794EBA0D282DDD0F282BD0AE
:100AB000432802D0B12827D102E0012002F01DF91D
:100AC000012F08D0103D082D1ED2DFE805F00910D7
:100AD0001D1D1D1D1D184046BDE8F04101F06EBEF4
:100AE000627A31464046BDE8F04101F045BE04F16E
:100AF000080231464046BDE8F04101F065BEBDE860
:100B0000F041012002F0F9B8BDE8F081014800F0A1
:100B100021B9000068060020014800F01BB9000060
:100B2000E0050020014800F015B90000240600206F
:100B300030B590F840500124AC40C56B6C6004683F
:100B400063604368102B036803D099600068C2603B
:100B500030BD9A600068C16030BD704770470000CA
:100B600006490020C8610648016941F0040101619D
:100B7000016941F04001016170470000B0060020AA
:100B800000200240064A0021D16106490A6942F06C
:100B900002020A614861086940F04000086170473C
:100BA000B006002000200240044B0022DA61044A13
:100BB000136943F00103136101807047B006002000
:100BC0000020024014480022C168CB06134904D516
:100BD000CA6942F00202CA611022C3685B0705D5E8
:100BE000CB6943F00103CB6142F00402C369DB0728
:100BF00007D0CB6943F00403CB61C16921F0010147
:100C0000C161A2F58071013901D0C2607047C1692C
:100C100021F00101C161704700200240B0060020B0
:100C200070B5054600F060FB0646114C09E0681CF3
:100C300007D025B100F058FB801BA84201D9032042
:100C400070BDE068C007F2D1E068800601D52020C1
:100C5000E060E068C00605D4E069C00702D1E06842
:100C6000400703D5FFF7AEFF012070BD002070BD27
:100C70000020024010B590F821100022022905D072
:100C80000421816380F82020012010BD01680B68D9
:100C900023F00E030B6001680B6823F001030B6067
:100CA00090F84030C46B012101FA03F3636080F8CF
:100CB000211080F82020104610BD000010B590F8DB
:100CC00021100024022903D00421816301243DE086
:100CD00001680A6822F00E020A6001680A6822F0C0
:100CE00001020A601A4A0168914201D1012121E002
:100CF000174A1432914201D110211BE0144A2832C4
:100D0000914201D1891515E0114A3C32914201D13D
:100D100089140FE00E4A5032914202D14FF48031D3
:100D200008E00B4A6432914202D14FF4801101E095
:100D30004FF08071064A083A5160012180F8211075
:100D4000002180F82010416B01B18847204610BD7A
:100D5000080002402DE9F05FC16B0C6801680B6868
:100D6000D0F840C0042202FA0CF2494DDFF824A169
:100D7000494E4A4FDFF828B1DFF828E122422CD053
:100D80005A072AD50A68920603D40A6822F0040298
:100D90000A600168A94201D1042219E0514501D13C
:100DA000402215E0B14202D14FF4806210E0B94216
:100DB00002D14FF480420BE0594502D14FF480221A
:100DC00006E0714502D14FF4800201E04FF08062ED
:100DD0002F4908394A60C16A3BE04FF0020808FA1F
:100DE0000CF818EA040F4FF000094FF0010235D05B
:100DF0005FEA837832D50B689B0605D40B6823F035
:100E00000A030B6080F821200168A94201D1022267
:100E100019E0514501D1202215E0B14202D14FF431
:100E2000007210E0B94202D14FF400520BE0594574
:100E300002D14FF4003206E0714502D14FF40012A6
:100E400001E04FF00072124908394A6080F82090A2
:100E5000816A00291AD0BDE8F05F0847082505FA25
:100E60000CF5254212D01B0710D50B6823F00E039A
:100E70000B6090F84010C36B02FA01F15960826375
:100E800080F8212080F82090016BE2E7BDE8F09F18
:100E9000080002401C0002403000024044000240B2
:100EA000580002406C00024030B528B308C813490E
:100EB00014221944B1FBF2F18900C1631049816326
:100EC000022141771A6843F6F0718A43D0E9001491
:100ED0002143D0E902452C4321430469214344695D
:100EE0002143846921431143196000214163012298
:100EF00042770177084630BD012030BDF8FFFDBFC5
:100F00000000024070B5044690F82000002501283A
:100F10000CD0012084F8200094F821600020012EDC
:100F200006D084F820000225284670BD022070BD3E
:100F3000022684F82160A0632068066826F0010676
:100F400006602046FFF7F4FDE06A0028206801688B
:100F500002D041F00E0106E021F00401016020689A
:100F6000016841F00A0101602068016841F0010157
:100F70000160D9E770B5044600F0B6F90546601C7B
:100F800002D004480078044400F0AEF9401BA042AF
:100F9000FAD370BD680000202DE9F04705462648C9
:100FA0000F460126017E01290FD0012181460176DD
:100FB0002868DFF888804CF25034022808D0A24616
:100FC0002046FFF72DFEA8B131E00220BDE8F087F2
:100FD0002046FFF725FE08BB0120FFF7C1FD204694
:100FE000FFF71EFED8F81010064621F00401C8F8DD
:100FF00010101CE04FF0FF303860AC6811E0204664
:10100000FFF7C0FD5046FFF70BFED8F810100600A2
:1010100021F00201C8F8101001D03C6007E004F58F
:101020008064D5E9020100EB8120A042E7D80021CD
:1010300089F818103046C9E7B006002000200240A9
:101040000348016941F08001016100207047000000
:10105000002002402DE9F05F07461C488846002426
:10106000017E15461E46012909D0012181460176DF
:101070004CF2503A5046FFF7D3FD18B122E002205F
:10108000BDE8F09F012F02D0022F00D00427D346E5
:10109000DFF83CA0220128463146FFF743F881B231
:1010A00008EB4400FFF780FD5846FFF7B9FDDAF87A
:1010B000102022F00102CAF8102018B9641CE4B212
:1010C000BC42E7D3002289F81820D9E7B0060020F7
:1010D00000200240064900200A69120607D5054A89
:1010E0004A60054A4A600969090600D5012070472F
:1010F0000020024023016745AB89EFCD2DE9F84F71
:10110000DFF8B891002409F1040A0AF1040B234620
:101110000F270BF1040EC9E00125A5402A40AA4281
:101120007DD1674ED1F804C0ACEB0608B44532D08F
:1011300014DCBCF1030F3AD009DCBCF1000F2AD05B
:10114000BCF1010F1CD0BCF1020F31D11DE0BCF18C
:10115000110F17D0BCF1120F2AD119E0B8F5881F72
:1011600019D006DCB8F5803F15D0B8F5801F1FD127
:1011700011E0B8F5001F0ED0B8F5041F18D10AE031
:10118000CB6815E0CB681B1D12E0CB6808330FE07D
:10119000CB680C330CE08B682BB1012B4FF00803AC
:1011A00003D0456104E0042302E0056100E0002370
:1011B000FF2A01D8064601E000F104064FEA840543
:1011C00001D9A5F12005D6F8008007FA05FC28EA28
:1011D0000C0803FA05F548EA0508C6F800804D68D2
:1011E000ED0062D5374DAE6946F00106AE61AD69DE
:1011F00024F0030605F001050095334D06EB050CC0
:10120000DCF80850A607360F07FA06F825EA0805A5
:10121000DFF8B880404503D14FF0000817E044E004
:10122000DFF8AC80404502D14FF001080FE0DFF855
:10123000A480404502D14FF0020808E0DFF8988012
:10124000404502D14FF0030801E04FF0040808FACE
:1012500006F848EA0508CCF808804D68D9F800601F
:10126000ED034D4601D5164300E096432E604D68D0
:10127000DAF80060AD03554601D5164300E0964309
:101280002E604D68DBF80060ED025D4601D5164327
:1012900000E096432E604D68DEF80060AD027546B2
:1012A00001D5164300E096432E60641C0D682A4663
:1012B000E5407FF431AFBDE8F88F00000004014045
:1012C0000000111000100240000001400008014021
:1012D000000C014000100140001401400AB10161FE
:1012E00070470904FBE70000014880687047000070
:1012F0006800002070B504001BD094F83D00002564
:1013000020B984F83C50204600F0AEF8242084F840
:101310003D002068016821F00101016000F000FA41
:101320004D4A6168914201D84C4900E04C498842DD
:1013300001D2012070BD4B492368B0FBF1F15E681A
:1013400026F03F060E435E606368934206D94FF471
:10135000967359434FF47A73B1FBF3F12368491C38
:101360001E6A26F03F06314319626168914210D827
:101370004900401EB0FBF1F2521CC2F30B02042ADA
:1013800001D2042022E0B0FBF1F0401CC0F30B00BE
:101390001CE0A368F3B301EBC10202EB0116421E8D
:1013A000B2FBF6F2521C42F48042120549D093B3CC
:1013B00001EBC10202EB0111401EB0FBF1F0401C39
:1013C000C0F30B0040F4804040F400402168CA693B
:1013D0004CF6FF739A431043C861D4E907010843F0
:1013E00021680A6822F0C00210430860D4E90301B2
:1013F00001432068826848F2FF339A4311438160B9
:10140000D4E9050108432168CA6822F0FF021043AD
:10141000C86001E00EE016E02068016841F00101BB
:1014200001602564202084F83D00256384F83E5047
:10143000002070BD01EB4106421EB2FBF6F2521CC9
:10144000B3E70120C2E701EB4101401EB0FBF1F020
:10145000401CC0F30B00B7E7A086010080841E008B
:1014600000093D0040420F0010B586B000210091F8
:1014700001910291039100680F4988421AD10F4CE3
:10148000A06940F00800A061A069694600F008006A
:101490000490C0200090122001900320039008487F
:1014A000FFF72CFEE06940F40010E061E06900F411
:1014B0000010049006B010BD00540040001002401F
:1014C000000C014002488168027811448160704735
:1014D00068000020074810B5016841F01001016064
:1014E000032000F075F8002000F006F800F024F862
:1014F000002010BD0020024070B50D4D04464FF491
:101500007A712878B1FBF0F00A490968B1FBF0F074
:1015100000F0A9FD48B9102C07D200222146501E28
:1015200000F036F800206C6070BD012070BD000036
:1015300068000020740000200C4808B5816941F063
:1015400001018161816901F001010091C16941F0EE
:101550008051C161C06900F080500090044841682A
:1015600021F0E06141F00071416008BD00100240CF
:1015700000000140002809DB00F01F02012191401A
:101580004009800000F1E020C0F800117047000021
:10159000F0B40E4B1B680C46C3F30223C3F10705DE
:1015A000042D00D90425191D072901D2002300E0CC
:1015B000DB1E012606FA05F1491E214099409E4096
:1015C000761E16403143F0BC01F070BF0CED00E018
:1015D000064900F0070208684FF6FF03184040EA8A
:1015E0000220034A10430860704700000CED00E041
:1015F0000000FA052DE9F0470F46050061D0434E83
:10160000306800F00700B84209D2306820F00700C7
:1016100038433060306800F00700B84251D1286884
:101620003B4C810712D5400703D5606840F4E06069
:1016300060602878000703D5606840F460506060FF
:101640006068A96820F0F000084360602878C0074F
:1016500028D06868012810D02168022810D0890796
:1016600000292EDA616821F0030101436160FFF770
:101670003BFE804641F288390DE021688903EFE79F
:101680008901EDE7FFF730FEA0EB0801494502D9DB
:101690000320BDE8F0876068696800F00C00B0EBDB
:1016A000810FEFD1306800F00700B8420BD93068E5
:1016B00020F0070038433060306800F00700B8427F
:1016C00001D00120E5E72878400705D56068E96882
:1016D00020F4E060084360602878000706D5606861
:1016E000296920F4605040EAC100606000F038F8D9
:1016F0006168084AC1F30311515CC840064908609B
:1017000006480068FFF7F8FE0020C2E7002002400C
:101710000010024034430008740000206C000020D8
:101720000448054900684968044AC1F30221515C34
:10173000C840704774000020001002404443000875
:101740000448054900684968044AC1F3C221515C54
:10175000C840704774000020001002404443000855
:1017600012A185B00FC98DE80F0014A0144A0068BB
:1017700004905168134801F00C03042B10D0082B7F
:101780000ED1C1F38343C9031DF803000AD5516884
:1017900004AAC1F34041515C0A4A5043B0FBF1F046
:1017A00005B0704708494843FAE700000203040502
:1017B000060708090A0B0C0D0E0F1010010200009D
:1017C0000010024000127A0000093D002DE9F84F98
:1017D000040070D02078C04DC00749D06868C0F3BD
:1017E0008100012807D06868C0F38100022809D170
:1017F0006868C00306D52868800339D5606800286A
:10180000E7D035E06068B0F5803F0BD010B1B0F59F
:10181000A02F11D0286820F480302860286820F498
:10182000802002E0286840F480302860606890B131
:10183000FFF75AFD06460AE0286840F48020286039
:10184000F0E700BFFFF750FD801B642873D82868BD
:101850008003F7D50CE0FFF747FD064605E000BF23
:10186000FFF742FD801B6428F0D828688003F7D476
:1018700020789A4E80074FF001094FF0000839D5C3
:10188000686810F00C0F07D06868C0F38100022868
:1018900009D16868C00306D42868800714D5206978
:1018A000012808D110E02069B0B1C6F80090FFF718
:1018B0001BFD074605E00AE1FFF716FDC01B0228E5
:1018C000C4D828688007F7D52868616920F0F80037
:1018D00040EAC10028600DE0C6F80080FFF704FD73
:1018E000074604E0FFF700FDC01B022823D8286844
:1018F0008007F7D4207800072CD57948A169D9B1A1
:10190000C0F80090FFF7F0FC074604E0FFF7ECFC9E
:10191000C01B02280FD8686A8007F7D571484FF4BA
:10192000FA510068B0FBF1F0009000BF0098411E32
:101930000091FAD20EE080E0C0F80080FFF7D4FCFE
:10194000074604E0FFF7D0FCC01B022875D8686A80
:101950008007F7D42078400760D5E8690027C000E9
:1019600008D4E86940F08050E861E869012700F098
:10197000805000905C480168C90513D40168834613
:1019800041F480710160FFF7AFFC824606E000BFC2
:10199000FFF7AAFCA0EB0A0064284ED8DBF8000091
:1019A000C005F5D5E06801280AD008B1052813D094
:1019B000286A20F001002862286A20F0040002E072
:1019C000286A40F001002862E06841F2883B98B143
:1019D000FFF78AFC82460BE0286A40F00400286288
:1019E000EEE700BFFFF780FCA0EB0A0159455AD88B
:1019F000286A8007F6D50CE0FFF776FC824605E002
:101A0000FFF772FCA0EB0A0159454CD8286A800701
:101A1000F6D41FB1E86920F08050E861E06988B32E
:101A20006968C1F38101022944D00228C6F86080A8
:101A300004D0FFF759FC044638E034E0FFF754FCCB
:101A4000074604E0FFF750FCC01B02282BD828688B
:101A50008001F7D4206AB0F5803F05D16868A1689D
:101A600020F4003008436860D4E90801084369683D
:101A700021F4741108436860C6F86090FFF734FCE5
:101A8000044606E025E000BFFFF72EFC001B0228FD
:101A900009D828688001F7D51BE000BFFFF724FCB8
:101AA000001B022802D90320BDE8F88F28688001B6
:101AB000F4D40EE00128F7D06868226A00F480317F
:101AC000914204D1616A00F47010884201D0012073
:101AD000EAE70020E8E70000001002400000424270
:101AE00080044242740000200070004070B5040081
:101AF00005D00025A56294F8510010B106E0012040
:101B000070BD84F85050204600F02EF8022084F872
:101B100051002068016821F040010160D4E9010111
:101B20000843D4E903121143084361690843218B38
:101B300001F400710843E1690843216A0843A16A7E
:101B4000084321680860A069042101EA1040216867
:101B500048602068C16921F40061C16165650120A8
:101B600084F85100002070BD30B585B00024009489
:101B700001940294039400681449884223D11448C4
:101B8000816941F480518161816901F4805104913E
:101B9000816941F00401816180690E4D00F004000B
:101BA0000490A02000900220019003200390694639
:101BB0002846FFF7A3FA4020CDE9000469462846ED
:101BC0000294FFF79BFA05B030BD000000300140E1
:101BD00000100240000801402DE9F84F044640681B
:101BE0000025984616460F464FF0040BB0F5827F4D
:101BF00001D1A06888B194F85000012818D00120C4
:101C000084F85000FFF770FB814694F851004FF0C4
:101C1000000A01280ED002257DE084F851B0134659
:101C20000A462046CDF8008000F02CF9BDE8F88F78
:101C30000220FBE7002F6DD0002E6BD084F851B04E
:101C4000C4F854A0A763A687E687C4F830A0A4F818
:101C500034A0A4F836A0C4F840A0C4F844A0A068FA
:101C6000B0F5004F04D12068016821F48041016083
:101C700020680168490603D4016841F04001016011
:101C8000E068D8B139E020688168C90709D0007BD5
:101C9000A16B0870A06B401CA063E08F401EE08722
:101CA0000CE0FFF721FBA0EB0901414503D3B8F19C
:101CB000FF3F03D036E0B8F1000F33D0E08F0028AB
:101CC000E1D11DE020688168C90709D0C068A16B17
:101CD0000880A06B801CA063E08F401EE0870CE0B2
:101CE000FFF702FBA0EB0901414503D3B8F1FF3F29
:101CF00003D017E0B8F1000F14D0E08F0028E1D135
:101D00004A464146204600F04DFF08B1202060655C
:101D1000606D00B10125012084F8510084F850A0C5
:101D2000284683E70325F6E72DE9F84F044690F8A7
:101D3000500000271D461646894601280DD04FF059
:101D4000010B84F850B0FFF7CFFA804694F85100A9
:101D5000BA46012804D002278EE00220BDE8F88FA1
:101D6000B9F1000F7DD0002E7BD0032084F8510004
:101D7000C4F854A0C4F83090A686E686C4F838A00B
:101D8000A4F83CA0A4F83EA0C4F844A0C4F840A025
:101D9000A068B0F5004F04D12068016841F480418B
:101DA000016020680168490603D4016841F04001E0
:101DB0000160E068B0F5006F606803D030B3012EB9
:101DC00024D040E008B1012E1CD1206B216800888E
:101DD000C86006E020688168890709D5216B0988F9
:101DE000C160206B801C2063E08E401EE08609E00D
:101DF000FFF77AFAA0EB0800A84202D3681C01D0D2
:101E000031E07DB3E08E0028E4D11FE0206B216833
:101E10000078087306E020688168890709D5216B7E
:101E200009780173206B401C2063E08E401EE08621
:101E300009E0FFF759FAA0EB0800A84202D3681C9A
:101E400001D010E075B1E08E0028E4D14246294669
:101E5000204600F0D5FE08B120206065A06820B1C2
:101E600007E008E0FFE7032706E02068C168806814
:101E70000090606D00B1012784F851B084F850A043
:101E800038466BE72DE9F84F044690F850000027DC
:101E90000A9E1D4692468B464FF0010901280ED03E
:101EA000012084F85000FFF71FFA804694F8510093
:101EB000616801280CD0B1F5827F07D102E00220D1
:101EC000BDE8F88FA16809B9042801D00227C2E053
:101ED000BBF1000F27D0BAF1000F24D01DB394F846
:101EE0005100042802D0052084F8510000206065CC
:101EF000C4F838A0E587A587C4F830B0E586A58684
:101F00002064606420680168490603D4016841F0D8
:101F100040010160E068B0F5006F606805D0E8B38B
:101F2000012D46D07FE0012795E008B1012D39D180
:101F3000206B21680088C860206B801C2063E08EC5
:101F4000401EE0862EE02068816889070FD5E18E6B
:101F500069B1B9F1010F0AD1216B0988C160206B09
:101F6000801C2063E08E401EE0864FF00009206850
:101F70008168C9070CD0E18F51B1C068A16B08809E
:101F8000A06B801CA063E08F401EE0874FF001092A
:101F9000FFF7AAF9A0EB0800B04200E009E001D386
:101FA000701C50D1E08E0028CDD1E08F0028CAD11E
:101FB0003FE0206B216800780873206B401C206391
:101FC000E08E401EE0862EE02068816889070FD5EC
:101FD000E18E69B1B9F1010F0AD1216B0978017362
:101FE000206B401C2063E08E401EE0864FF000090D
:101FF00020688168C9070CD0E18F51B1C068A16B1E
:102000000870A06B401CA063E08F401EE0874FF07B
:102010000109FFF769F9A0EB0800B04202D3701C78
:1020200001D010E07EB1E08E0028CDD1E08F0028F5
:10203000CAD142463146204600F0E2FD28B10127D0
:102040002020606507E0032705E0A06818B9206834
:10205000C16880680090012084F85100002084F855
:10206000500038462CE710B5401EB0F1807F01D3F8
:10207000012010BD4FF0E02460610F21601701F0D6
:1020800015FA0020A06107202061002010BD10B5C6
:1020900004460068416994F83920C1F3C011212A2F
:1020A0000BD151B1416921F080014161206B08B130
:1020B000FEF7E0FD204600F02DFF2068416994F80E
:1020C0003A20C1F38011222A0BD151B1416921F08C
:1020D00040014161606B08B1FEF7CCFD204600F085
:1020E0000BFF002010BD704770B5026804461068F1
:1020F000D168536910F00F0F50D003F0010501F4BF
:10210000907635435DD0C20705D0CA0503D5E26B92
:1021100042F00102E263420705D5DA0703D0E26B21
:1021200042F00202E263820705D5DA0703D0E26BD0
:1021300042F00402E263020705D5DA0703D0E26B3E
:1021400042F00802E263E26B002A33D0800604D535
:10215000880602D5204600F0E6FE20684069E16B63
:10216000C0F38010090700D428B3204600F0C4FE55
:102170002068416949061AD5416921F04001416151
:10218000606BA0B11B494163606BFEF797FD0028AF
:1021900010D0606B416BBDE870400847830610D5D6
:1021A0008B060ED52046BDE8704000F0BCBE204630
:1021B000FFF799FF70BD2046FFF795FF0020E06311
:1021C00070BD030606D50B0604D52046BDE8704059
:1021D00000F050BF4006F3D54806F1D5D16820463F
:1021E00021F04001D160202184F8391000F0BFF9BE
:1021F00070BD0000592E000870B5040004D094F89A
:102200003900002510B106E0012070BD84F8385077
:10221000204600F023F8242084F839002068C168A3
:1022200021F40051C160204600F0C8FE2068016919
:1022300021F4904101612068416921F02A01416146
:102240002068C16841F40051C160E563202084F832
:10225000390084F83A00002070BD00002DE9F041FB
:1022600086B0002400940194029403940546DFF89C
:1022700088C10368614802210322614F80264FF420
:102280008068634537D1836943F480438361836900
:1022900003F480430493836943F0040383618069FA
:1022A000039200F0040004900802CDE900016946A1
:1022B0003846FEF723FFCDE900846946384602948C
:1022C000FEF71CFF504F4F48C7E90004C7E902461C
:1022D0003C617C61BC613846FC61FEF7E5FD08B1FC
:1022E000FEF73CFC6F630022114625207D62FFF75C
:1022F0004FF925203DE0DFF814C163453ED1C369A5
:1023000043F40033C361C36903F400330493836966
:1023100043F0040383618069039200F00400049099
:102320000420CDE9000169463846FEF7E7FE0820A3
:10233000CDE90004694638460294FEF7DFFE324FCD
:10234000304844371430C7E90004C7E902463C610D
:102350007C61BC613846FC61FEF7A6FD08B1FEF762
:10236000FDFB6F630022114626207D62FFF710F906
:102370002620FFF7FFF806B0BDE8F081244FBB42EE
:10238000F9D1C36943F48023C361C36903F4802393
:102390000493836943F0080383618069CDE9008178
:1023A00000F00800CDE903201A4F69463846FEF7D1
:1023B000A5FEF814CDE90004694638460294FEF7FC
:1023C0009DFE114F0F4888372838C7E90004C7E938
:1023D00002463C617C61BC613846FC61FEF764FDED
:1023E00008B1FEF7BBFB6F630022114627207D6218
:1023F000FFF7CEF82720BCE700380140001002406C
:102400000008014058000240E00500200044004060
:1024100000480040000C0140F8B5044690F83A002E
:1024200020283CD1C1B3BAB394F83800012836D083
:10243000012084F83800A162A2850025E5632220EE
:1024400084F83A00636B17489862636B1648D86249
:10245000636B16481863606B134645630846666BEA
:10246000216802463046091DFEF74CFD20680168D0
:102470004168009184F83850C16841F48071C160AE
:102480002068416941F0010141612068416941F0E2
:10249000400141610020F8BDFFE70120FBE7022079
:1024A000F9E70000B32E0008EF2E0008692E00089F
:1024B000704770472DE9F843044690F839001F46ED
:1024C00016460D46202850D1A5B19EB194F838008B
:1024D00001284AD0012084F838004FF00008C4F8E1
:1024E0003C80212084F83900FEF7FEFEA684814658
:1024F000E68426E00120BDE8F883E08C401EE084FD
:10250000A0684B46B0F5805F4FF000024FF08001AD
:102510002046009703D000F0DEFDE8B90DE000F0A2
:10252000DAFDC8B928882168C0F30800486020692E
:1025300008B16D1C05E0AD1C03E0216815F8010B26
:102540004860E08C0028D8D14B460022402120462C
:10255000009700F0C0FD08B10320CCE7202084F8EC
:10256000390084F838800020C5E70220C3E77047AF
:10257000FEE70000114808B5416941F001014161E1
:102580004069002200F00100009011460D20FEF786
:10259000FFFF0D20FEF7EEFF002211460F20FEF791
:1025A000F7FF0F20FEF7E6FF002211461020FEF78E
:1025B000EFFFBDE808401020FEF7DCBF001002402E
:1025C0002DE9F04186B000241B4800940194029448
:1025D0000394816941F004018161816901F0040182
:1025E0000491816941F0080181618069134F00F015
:1025F00008000490002212213846FEF76FFEDFF833
:102600004080002201214046FEF768FE122001258D
:102610000226CDE90005CDE9024669463846FEF7B7
:102620006DFD03960095CDE9015469464046FEF7DD
:1026300065FD06B0BDE8F0810010024000080140D1
:10264000000C01400D4810B50B4901600C49416078
:1026500000214FF480428160C0E903124161816131
:10266000C1610162FEF746FE002803D0BDE81040BC
:10267000FEF774BA10BD000000540040480300206B
:10268000A0860100104810B50E4901604FF4827118
:10269000416000218160C1604FF400720161C0E9B6
:1026A00005123822C0E90721416281620A21C16214
:1026B000FFF71CFA002803D0BDE81040FEF74EBA21
:1026C00010BD0000003001409C0300200C4810B5F4
:1026D0000A4901604FF4E1314160002181600C2220
:1026E000C160C0E904128161C161FFF785FD002866
:1026F00003D0BDE81040FEF731BA10BD00380140EC
:10270000200500200C4810B50A4901604FF496419D
:102710004160002181600C22C160C0E90412816126
:10272000C161FFF769FD002803D0BDE81040FEF746
:1027300015BA10BD00440040600500200C4810B5DB
:102740000A4901604FF496414160002181600C22EA
:10275000C160C0E904128161C161FFF74DFD00282D
:1027600003D0BDE81040FEF7F9B910BD00480040A5
:10277000A0050020FEE7704770B51446012817D168
:102780000C4D0D4E2878012808D1012C06D10022CD
:1027900002213046FEF7A2FD00202870C0B220437F
:1027A00006D1012202213046FEF798FD0120287053
:1027B00070BD00005400002000080140014908706D
:1027C000704700000000002010B50C46032808D117
:1027D000104601F019FD0146E0B2BDE8104001F0DD
:1027E000BDBC10BD03211420FEF745B910B514205F
:1027F00000F0ACF9800705D10321BDE8104014209A
:1028000000F06FBA10BD70B50646082188B00024EC
:102810000846FEF730F900210D2000F0FFFD802171
:102820000E20FEF728F993208DF8040020208DF863
:10283000050006A801AB0090022219460C2000F00A
:1028400040F805000DD1002101A8425C7254425CA1
:10285000491C5440C9B20429F7D3405CA04200D0BF
:10286000022580210E2000F03CFA08B0284670BDF9
:1028700030B587B08DF804008DF80510002001A94F
:10288000145C0D18401CC0B2AC700628F8D30020B0
:102890000C181A5C401CC0B222720628F8D306A895
:1028A00000900B460C220E2000F00BF8040004D11F
:1028B000082000F04BF9000700D4022407B020469E
:1028C00030BD2DE9FF5F00270225DDF838A0164650
:1028D0008B468146B8460C2805D0B9F10E0F05D1BC
:1028E0001227102001E077273020804647F0800132
:1028F000022000F093FD80210420FEF7BCF80021A7
:10290000012000F08BFD80210A2000F0EAF900246C
:1029100005E01BF80410092000F080FD641CB4429F
:10292000F7D34946012000F079FDB9F10C0F03D12E
:1029300080210D2000F0D5F94FF44876042000F0F6
:1029400005F90446761E04D0E00702D114EA080F08
:10295000F4D080210D20FEF78EF836B1062000F06D
:10296000F5F810F01B0F0CD0022580210C2000F090
:10297000B8F90021012000F051FD04B02846BDE85F
:10298000F09F00253C40E00700D00125B9F10C0F75
:10299000EBD10A2000F0DAF804460C2000F0D6F85B
:1029A00010F007004FEAC40101D008390144CAF809
:1029B000001024B1122C04D91224002603E00124B3
:1029C000FBE7002605E0092000F0C0F803998855D0
:1029D000761CA642F7D3C8E700B587B050208DF823
:1029E000040000208DF805000DF10602022101A867
:1029F000FEF70EF806A801AB0090042219460C2041
:102A0000FFF75FFF07B0002000BD30B50C4605465C
:102A1000082187B00846FEF72EF807210D2000F0A8
:102A2000FDFC0321142000F05CF906A801AB009026
:102A30008DF80450012219460C20FFF742FF10B90F
:102A40000699102902D0022007B030BD9DF804106D
:102A500021709DF805106170F6E7000010B5214C5B
:102A6000012211462046FEF739FC0A20FEF782FAC1
:102A7000002201212046FEF731FC0220FEF77AFAFF
:102A8000012211462046FEF729FC0220FEF772FAC9
:102A90000F21012000F0C2FC0220FEF76BFA3D215D
:102AA000112000F0BBFC1E212D2000F0B7FC0021FE
:102AB0002C2000F0B3FC8D212A2000F0AFFC3E2139
:102AC0002B2000F0ABFC4021152000F0A7FC80215A
:102AD0003320FDF7D0FF4021152000F09FFC00209F
:102AE00010BD0000000C014010B588B093218DF896
:102AF000041070218DF8051000218DF80A1001AA2C
:102B00005418435CA370445C9DF80A30491C634030
:102B1000C9B28DF80A300429F2D3072101A8D21DC9
:102B2000FDF776FF08210846FDF7A5FF06A801ABD3
:102B30000090092219460C20FFF7C3FE10B9069930
:102B4000182900D0022008B010BD70471CB5002124
:102B50008DF800107E2101EA400040F080008DF8E1
:102B600004000120FEF706FA0C4C0022102120463A
:102B7000FEF7B4FBFF23012201A90948FFF7D4F8AF
:102B8000FF23012269460648FFF726F8012210219B
:102B90002046FEF7A3FB9DF800001CBD0008014085
:102BA0009C030020F8B5044640684FF482739842B5
:102BB00017D1A0684FF48065B0F5004F01D0A8424E
:102BC0000FD12068066826F04006066060689842CB
:102BD00007D1A068A84204D100920B46002201212F
:102BE00003E000920B4600228021204600F018F8F6
:102BF000002804D0606D40F0200060650320F8BD1F
:102C000038B50B46009204460022802100F008F8F7
:102C1000002804D0606D40F020006065032038BDBE
:102C20002DE9F0411D4617460E460446DDF8188092
:102C300008E0681C06D0FEF757FBA0EB0800A8428E
:102C40000BD255B12068806836EA000030D00020F1
:102C5000B842EED10020BDE8F0812068416821F043
:102C6000E00141606068B0F5827F0BD1A068B0F5EB
:102C7000004F02D0B0F5806F04D12068016821F0C8
:102C800040010160A06AB0F5005F09D120680168C9
:102C900021F4005101602068016841F40051016095
:102CA000012084F85100002084F850000320D2E76E
:102CB0000120CDE77047000001B5FF2301226946DE
:102CC0000148FFF7F7FB08BD2005002010B50446BA
:102CD00003E000BFFFF7F0FF641C20780028F9D163
:102CE00010BD70B50C460546FFF730FF40EA040101
:102CF0002846BDE8704000F091BB10B50446EE20B8
:102D0000FFF7DAFFB120FFF7D7FF0020FFF7D4FF6E
:102D1000200AFFF7D1FFE0B2FFF7CEFFFF20FFF759
:102D2000CBFFFC20FFF7C8FFFF20FFF7C5FFBDE882
:102D30001040FF20FFF7C0BF70B5054616460C4691
:102D4000EE20FFF7B9FFB120FFF7B6FF1020FFF725
:102D5000B3FF280AFFF7B0FFE8B2FFF7ADFF200A84
:102D6000FFF7AAFFE0B2FFF7A7FF3046FFF7AEFF7D
:102D7000FF20FFF7A1FFFC20FFF79EFFFF20FFF7DA
:102D80009BFFBDE87040FF20FFF796BF3EB50546AC
:102D900000200090019002900C461046FDF774FC54
:102DA00002460B4604A1684600F06CFB6A462146C9
:102DB0002846FFF7C1FF3EBD252E316C660000009E
:102DC000FEF780BB30B58FB028216846FDF7C1F90A
:102DD00014210AA8FDF7BDF90224012004900094F3
:102DE0001020059000254FF4E010CDE9085007941D
:102DF0006846FEF7EBFC0AA90F2081E8310060026B
:102E0000CDE90D0501210AA8FEF7F4FB0FB030BD96
:102E10000D48016841F00101016041680B4A114011
:102E2000416001680A4A11400160016821F4802173
:102E30000160416821F4FE0141604FF41F0181608F
:102E40000449C00308607047001002400000FFF80A
:102E5000FFFFF6FE08ED00E010B5406A0021C185D5
:102E6000C184FFF740F910BD70B5446A206840691D
:102E700094F83910C0F3C0100025212904D118B1ED
:102E8000E584204600F046F82068406994F83A103E
:102E9000C0F38010222904D118B1E585204600F046
:102EA0002BF8E06B40F01000E0632046FFF71BF9C1
:102EB00070BD10B50146406A09680968890613D4D7
:102EC0000021C1850168CA6822F48072CA60016865
:102ED0004A6922F001024A6101684A6922F040020F
:102EE0004A61202180F83A10FFF7E2FA10BD10B5D0
:102EF000406AFFF7DEFA10BD0168CA6822F49072DA
:102F0000CA6001684A6922F001024A61202180F802
:102F10003A1070470168CA6822F0C002CA602021D6
:102F200080F83910704710B590F83A10222901D076
:102F3000022010BD8168B1F5805F11D001690029C0
:102F400001681FD0496801F07F03816A4A1C8262D0
:102F50000B70C18D491E0904090CC18518D02BE0E6
:102F60000269816A002A0268526805D0D2B20A80DA
:102F7000816A491C8162ECE7C2F308020A80816A17
:102F8000891CF7E74A68816A4B1C83620A70E0E794
:102F90000168CA6822F02002CA600168CA6822F487
:102FA0008072CA6001684A6922F001024A612021E8
:102FB00080F83A10FFF77CFA002010BD2DE9F041AF
:102FC000044600680169E26821F44051114301613F
:102FD0002169A0680843616908432168CA6841F211
:102FE0000C639A430243CA6020684169A26921F4D4
:102FF0004071114341611E49206864253226884290
:1030000002D1FEF79DFB01E0FEF78AFB00EBC00159
:1030100001EB001160686FF018078000B1FBF0F25F
:10302000B2FBF5F2B1FBF0F37A4303EB8202B1FBA2
:10303000F0F306EB0212B2FBF5F2B3FBF5F302F08C
:10304000F00202EB0312B1FBF0F3B1FBF0F0B0FBC6
:10305000F5F0784303EB800006EB0010B0FBF5F0D1
:10306000216800F00F0010448860BDE8F081000086
:103070000038014090F83910212901D00220704712
:103080008168B1F5805F016A0BD04A1C0262026858
:1030900009785160C18C491E0904090CC1840ED005
:1030A00017E009880268C1F308015160016900292D
:1030B000016A02D0491C0162ECE7891CFBE7016848
:1030C000CA6822F08002CA600068C16841F040010D
:1030D000C160002070472DE9F041984617460E4622
:1030E0000446069D1DE0681C1BD02DB1FEF7FCF8C0
:1030F000A0EB0800A84214D92068C16821F4D0715F
:10310000C1602068416921F001014161202084F8FB
:10311000390084F83A00002084F838000320BDE824
:10312000F0812068006836EA000004D00020B84230
:10313000D9D00020F3E70120F9E7000008B50D48D9
:10314000FEF7D2FF0B4800680168C943C9060FD4D7
:103150000168406800900748FEF799FF064800683C
:1031600040680649C0F164000870054901200870F4
:1031700008BD000020050020E005002065000020BB
:103180006200002008B50D48FEF7AEFF0B4800684E
:103190000168C943C9060FD4016840680090074818
:1031A000FEF775FF0648006840680649C0F16400F4
:1031B000087005490120087008BD00006005002066
:1031C00024060020660000206300002008B50D489A
:1031D000FEF78AFF0B4800680168C943C9060FD48F
:1031E0000168406800900748FEF751FF06480068F4
:1031F00040680649C0F16400087005490120087064
:1032000008BD0000A005002068060020670000201F
:1032100064000020FEE7000070B518490020044655
:103220000870174D174E04E0285D00F07BFF641C0A
:10323000E4B230788442F7D94021114800F036FFDB
:10324000114C607000F07EFF6178002915D068781D
:10325000072804D0BDE870400948FDF718BC71B6D6
:10326000BFF34F8F09480168094A01F4E061114337
:103270000160BFF34F8F00BFFDE770BD620000200B
:10328000F403002065000020000000200CED00E0A9
:103290000400FA052DE9F0412749284C0020087068
:1032A00020785A2845D16079A52842D16078FF2836
:1032B0003FD1234DA078234F234E7F28287003D978
:1032C000FF38FDF7AFF901E0FDF7BDF90022334605
:1032D000FDF72BF900223B46FDF70EF8FDF7E7F965
:1032E0002860FDF7D1F902460B4618A000F0BAF8A5
:1032F000E078134C174D241D7F28207003D9FF3828
:10330000FDF790F901E0FDF79EF900223346FDF745
:103310000CF900222B46FCF7EFFFFDF7C8F92060FF
:10332000FDF7B2F9BDE8F04102460B4607A000F0F8
:1033300099B8BDE8F0810000630000205804002027
:10334000100000200000394000002440252E316686
:1033500000000000000042402DE9F0412749284CC0
:103360000020087020785A2845D16079A52842D1DC
:103370006078FF283FD1234DA078234F234E7F282C
:10338000287003D9FF38FDF74DF901E0FDF75BF92F
:1033900000223346FDF7C9F800223B46FCF7ACFF9C
:1033A000FDF785F92860FDF76FF902460B4618A076
:1033B00000F058F8E078134C174D241D7F2820703A
:1033C00003D9FF38FDF72EF901E0FDF73CF90022A3
:1033D0003346FDF7AAF800222B46FCF78DFFFDF7D8
:1033E00066F92060FDF750F9BDE8F04102460B4652
:1033F00007A000F037B8BDE8F081000063000020AE
:10340000BC040020100000200000394000002440CF
:10341000252E3166000000000000424038B5002231
:1034200000927E2202EA40008DF800008DF8011023
:103430000120FDF79FFD094C002210212046FDF7D9
:103440004DFFFF23022269460548FEF76DFC01226D
:1034500010212046FDF742FF38BD00000008014062
:103460009C0300200FB4054B10B503A9044A029831
:1034700000F0FEF810BC5DF814FB0000A93D000848
:10348000780000200FB4084B10B504A902AA0398D5
:1034900000F0EEF8044602A9002000F080FC20466F
:1034A00010BC5DF814FB00009F3D00080907090EE1
:1034B000002804DB00F1E02080F80014704700F0E1
:1034C0000F0000F1E02080F8141D704702E008C8EA
:1034D000121F08C1002AFAD170477047002001E08E
:1034E00001C1121F002AFBD1704700002DE9FF5FC8
:1034F00082B00021DDE90430020DDDF840B0034365
:1035000018D044F61050A2F2FF324243151411981D
:1035100001281FD0A5EB0B00401C5FEA000A4FF00A
:1035200000064E4FDFF83891B046504615D5CAF127
:10353000000413E0119801244AA3012801D16FEA85
:103540000B010298119AC0E90031C0E9024206B0AD
:10355000BDE8F09FCBF10000DFE704460021404AC0
:10356000491842EB0450CDE9001012E0E00707D003
:1035700032463B4640464946FCF765FF8046894651
:1035800032463B4610461946FCF75DFF06460F469D
:103590006410002CEAD1DDE90401DDE90023BAF171
:1035A000000F06DAFCF74FFF42464B46FCF74BFF95
:1035B00005E0FCF7BAFF42464B46FCF7B6FF04466F
:1035C0000E460022284BFDF7A3F903D84FF0FF3039
:1035D000014607E00022254B20463146FCF78CFED1
:1035E000FDF77DF9102409E0002C0ADB0A220023F4
:1035F000FDF78FF8039B30321A55641E50EA010222
:10360000F2D1641C039AC4F111031444119A012AE3
:1036100003D0012208430DD10AE0084304D0002062
:103620004FF0110B119072E7A3EB0B056D1E0DE02F
:103630005B4504DD4FF0000205F1010504E003DA0B
:103640004FF00002A5F10105002AECD00298119973
:10365000C0E90231C0E9004579E7000000001440EC
:103660000000F03F300000000000F0430000E03FA9
:103670002DE9FF4F95B09B468946064600250FE28F
:10368000252877D100242746F84A0121059400E037
:10369000044316F8013F203B01FA03F01042F7D132
:1036A00030782A2811D06FF02F033078A0F1300243
:1036B000092A16D8059A44F0020402EB820203EBB1
:1036C00042021044761C0590EFE759F8042B05924E
:1036D000002A03DA504244F40054059044F00204F6
:1036E000761C30782E2816D116F8010F44F0040409
:1036F0002A280DD06FF02F023078A0F13003092B6B
:1037000009D807EB870302EB4303C718761CF3E7DE
:1037100059F8047B761C30786C280FD006DC4C28D6
:1037200017D068280DD06A2814D104E0742810D06E
:103730007A280FD10DE044F400140AE044F4801418
:1037400001E044F440147278824202D104F58014FE
:10375000761C761C307866280BD013DC582877D07E
:1037600009DC002875D04528F6D04628F4D0472833
:103770001AD19DE118E0632835D0642879D06528F6
:1037800012D195E1702873D008DC6728F1D0692840
:103790006FD06E280DD06F2806D1B5E073282CD0DD
:1037A000752875D0782874D05A46179990476D1CA3
:1037B00075E1C4F30250022809D003280DD0D9F8CE
:1037C000001004280DD00D6009F1040967E1D9F853
:1037D0000010EA17C1E90052F6E7D9F800100D8091
:1037E000F2E70D70F0E719F8041B8DF800100020C7
:1037F0008DF80100EA46012003E059F804AB4FF0D0
:10380000FF3061074FF0000102D40DE008F1010123
:103810008846B9420FDA8045F8DB1AF8081000290B
:10382000F4D108E008F1010188468142FADB1AF878
:1038300008100029F6D105985B46A0EB0807214641
:103840003846179A00F094FA284400EB080507E080
:103850004DE029E10DE01AF8010B5A4617999047FF
:10386000B8F10108F7D25B4621463846179A13E1B2
:1038700042E00A220092C4F302524FF0000A022AE8
:1038800008D059F804CB032A4FEAEC710AD00DE0B6
:1038900029E02AE009F1070121F00702F2E802C15C
:1038A000914609E00FFA8CFC4FEAEC71042A03D12F
:1038B0004FFA8CFC4FEAEC71002907DA0A46002126
:1038C000DCF1000C61EB02012D2202E0220504D59F
:1038D0002B228DF80420012203E0E20701D02022F0
:1038E000F7E7904659E00A2102E010220DE010218E
:1038F0004FF0000A00910BE010224FF0000A44F054
:1039000004040827009203E008224FF0000A009206
:10391000C4F30252022A05D059F804CB0021032A2D
:1039200008D009E009F1070121F00702F2E802C11D
:10393000914605E01FFA8CFC042A01D10CF0FF0C23
:103940004FF00008220728D5702806D0009B83F08E
:10395000100353EA0A0305D00EE040228DF804203C
:10396000012208E05CEA010206D030228DF8042032
:103970008DF8050002229046009B83F0080353EA6D
:103980000A030AD15CEA010201D1620705D530229F
:103990008DF804204FF001087F1E582804D034A071
:1039A00003900EA802900DE036A0F9E7534660465A
:1039B000009AFCF7AEFE84460398825C0298401E93
:1039C000029002705CEA0100F0D1029806A9081A80
:1039D00000F1200A600702D524F4803400E00127BA
:1039E000574502DDA7EB0A0000E0002000EB0A01CA
:1039F000009005984144401A0590E00306D45B46C8
:103A00002146179A059800F0B3F90544002706E00F
:103A100001A85A46C05D179990476D1C7F1C474509
:103A2000F6DBE0030CD55B462146179A059800F0BB
:103A30009FF9054404E030205A46179990476D1CC1
:103A40000099481E00900029F5DC08E002980299D0
:103A50005A460078491C0291179990476D1CBAF19B
:103A60000001AAF1010AF1DC65E10000092801006A
:103A700030313233343536373839616263646566E4
:103A800000000000303132333435363738394142A6
:103A9000434445460000000000F058F90544761CF8
:103AA000307800287FF4ECAD19B02846BDE8F08FDF
:103AB000620700D4062709F1070222F0070CFCE890
:103AC0000223E14603F000485FEA080C02D00FF23F
:103AD000702C0DE05FEA045C02D50FF2682C07E061
:103AE0005FEAC47C02D00FF2602C01E0AFF2700CF0
:103AF0004FF0FF3823F00043CDF850C065280CD0BC
:103B000006DC452809D046281DD047283DD13DE098
:103B1000662818D067287ED138E00021112F01DBFC
:103B2000112000E0781CCDE9000106A90EA8FFF7DE
:103B3000DDFCDDE90F010E9A03910021009207F1EF
:103B4000010A04914DE04FF000400097CDE90110CB
:103B500006A90EA8FFF7CAFCDDE90F0203920E9B2F
:103B600011990022DDF80CA00093049211B9791C80
:103B700000EB010AB7EB0A0004D4C0F1FF3007F1F3
:103B8000010A0490AAEB0700019044E0012F00DA3B
:103B900001270021112F01DD112000E03846CDE979
:103BA000000106A90EA8FFF7A1FCDDE90F010E9A9E
:103BB0000391002104910092BA4621070CD4039985
:103BC000514500DA8A46BAF1010F05DD009AAAF1E3
:103BD0000101515C302908D0B84202DA10F1040F1B
:103BE00006DA0121CDE9011015E0AAF10101E9E7AA
:103BF000002805DC049901440491AAEB000102E0CD
:103C0000411C514500DD8A460499401A401C019030
:103C10004FF000400290200704D40198504501DB8A
:103C2000CDF8048000208DF84F0002980DF14F0769
:103C3000B0F1004F25D02B200E9002984FF00208D3
:103C400000280CDA404202902D200E9007E00A2155
:103C50000298FCF748FD3031029007F8011DB8F1D9
:103C60000001A8F10108F2DC02980028EFD1791ECA
:103C70000E980870307800F0200040F0450007F8FA
:103C8000020D12A8C01B00F107081498007800B1BB
:103C9000012000EB0A01019801EBE0710598414415
:103CA000401A401E0590E00306D45B462146179A51
:103CB000059800F05DF805441498007818B15A464C
:103CC000179990476D1CE00324D55B462146179A4F
:103CD000059800F04DF805441CE00498002807DB27
:103CE000DDE90301884203DD0098405C179901E09B
:103CF000179930205A469047049805F10105401C59
:103D000004900198401E019004D12E205A46179924
:103D100090476D1CBAF10001AAF1010ADDDC05E053
:103D200017F8010B5A46179990476D1CB8F100011E
:103D3000A8F10108F4DC5B462146179A0598ABE62A
:103D40002D0000002B000000200000002DE9F041B4
:103D5000044600251E461746880404D405E039466B
:103D60002020B0476D1C641EF9D52846BDE8F081BF
:103D70002DE9F041044600251E469046C80301D5B2
:103D8000302700E02027880404D505E04146384666
:103D9000B0476D1C641EF9D52846BDE8F0810A685D
:103DA000531C0B601070704713B54FF6FF73012260
:103DB00069460248FEF77EFB00981CBDA005002066
:103DC00008B5FDF787FBFEF7FDFFFEF7F9FBFEF7F1
:103DD000D1FBFEF737FCFEF779FCFEF793FCFEF70C
:103DE000ADFCFEF74FFC5C4E042000253070757072
:103DF000FEF734FEFEF7F6FC6420FDF7BBF8FEF795
:103E0000F5FC56A0FFF72EFB55A0FFF72BFB574FF5
:103E1000DFF85C81DFF85C91A6F1010A0A20FDF76A
:103E2000A9F84D495220FEF7F0FD002866D13088F0
:103E300044BA214650A0FFF715FBB4F5006F24D01B
:103E400006DCB4F5007F1ED0B4F5806F08D10BE01E
:103E5000B4F5884F06D0A4F20344B4F5804F16D0D1
:103E60004AA002E04DA000E051A0FFF7FBFA3A485B
:103E7000801CFEF7C8FC54468AF8000048B151A0E7
:103E8000FFF7F0FA0FE054A0EFE758A0EDE75BA0D2
:103E9000EBE73148801CC178009183784278017843
:103EA0005BA0FFF7DFFA2C48801CFEF71DFE207098
:103EB00008B160A000E064A0FFF7D4FA264B05210A
:103EC0009B1C1A1D6020FEF7D3FC207018B163A064
:103ED000FFF7C8FAA2E7204B05219B1C1A1D6020A2
:103EE000FEF7C6FC20700028F1D1FEF775FD2070AA
:103EF00008B15FA000E062A0FFF7B4FA38780128AB
:103F00000ED163483D70FF23027862496248FEF794
:103F1000D1FAFFF781F964225E496048FEF77CFA26
:103F200098F80010012908D188F80050FFF7B2F97D
:103F300064225B495848FEF76FFA99F8001001298E
:103F4000C8D189F80050FFF707FA6422554956484E
:103F5000FEF762FA62E70000560000202000000031
:103F6000BFAACABCD1B0BFA80000000062000020F8
:103F70006300002064000020BFA8C0E0D0CDA3BA39
:103F800028307825303458290D0A0000556E6B6EA4
:103F90006F776E20436172640D0A00004D6966619F
:103FA000726520556C7472614C696768740D0A0003
:103FB0004D6966617265204F6E6528533530290D55
:103FC0000A000000416E7469636F6C6C2045727268
:103FD0006F720D0A000000004D6966617265204F26
:103FE0006E6528533730290D0A0000004D6966615F
:103FF00072652050726F2858290D0A004D6966615C
:10400000726520444553466972650D0A0000000040
:1040100053657269616C204E756D6265723A253028
:1040200032582530325825303258253032580D0A52
:104030000000000053656C65637420436172642066
:104040004572726F720D0A0053656C65637420438C
:10405000617264204F4B0D0A0000000041757468C6
:10406000205374617465204572726F720D0A0000EE
:1040700050636448616C74204572726F720D0A005F
:1040800050636448616C74204F4B0D0A00000000BF
:1040900065000020F40300206005002020050020BA
:1040A00058040020BC040020A0050020F0B51C4DE1
:1040B00000273A46194CB5F800C019E0664506D00D
:1040C000174A121DB25C761CC6F308036B80238866
:1040D0000BB9EE2A0CD18B4202D2C2545B1C238056
:1040E000636842EA032303F540366360761C11D00F
:1040F0006E88ACEB060303F500734FEAE37E03EB37
:10410000DE5E6FF3080EA3EB0E031B041B0CD5D170
:104110000020F0BD208867602780F0BD04000020EB
:104120007C000020064910B50B884C885A1CC2F34D
:104130000802944202D00C1D18550A8010BD0000E0
:104140007C00002003490020488008800249486024
:10415000088070477C0000200400002010B5274A2A
:10416000042808D0062811D005281BD0072825D000
:104170000A282FD039E02248016001881180418847
:10418000518081889180C088D0802EE01C48083002
:104190000160018811814188518181889181C088A5
:1041A000D08122E0164810300160018811824188D8
:1041B000518281889182C088D08216E010481830E0
:1041C0000160018811834188518381889183C0886F
:1041D000D0830AE00A4808380160018811844188C8
:1041E000518481889184C088D084FCF7BDFBBDE8F0
:1041F000104040220149034800F07AB880020020B4
:104200002400002000F800082DE9F84F4FF00009C5
:104210000746CB46C8464C46385D58B1A0F1300140
:104220000A2903D32E2801D02D2803D1641CE4B21F
:104230000A2CF1D3002604E0B85D2E2803D0761CAA
:10424000F6B2A642F8D3002510E0785D2D2814D0F0
:104250003038FCF7D9F9824622495846FBF7DCFF93
:104260005146FBF781FF83466D1CEDB2B542ECD39E
:104270006D1CEDB2AA461B4E13E04FF00109F3E7A7
:10428000785D30380A280ED2FCF7BEF9009031462E
:104290004046FBF7C1FF0099FBF766FF6D1C8046A7
:1042A000EDB2A542ECD300250F4E104FA4EB0A044B
:1042B0000BE04046FCF7E8F932463B46FCF7C3F812
:1042C000FCF7F5F96D1C8046EDB2AC42F1DC4146DD
:1042D0005846FBF749FFB9F1000F01D080F00040CC
:1042E000BDE8F88F000020419A9999999999B93FB2
:1042F00070B586B014460E460546FCF7EBFE00206E
:10430000012102950090CDE9031004A96846FCF74D
:1043100043FE09E03288002329460120FCF79AFE7B
:10432000641EAD1CE4B2B61C002CF3D1FCF788FE71
:1043300006B070BD00000000000000000102030490
:104340000607080900000000010203046C4300088E
:10435000000000207C000000CC340008E843000886
:104360007C000020540A0000DC340008000000003B
:10437000000000000000000000000000000000003D
:10438000000000000000000000000000000000002D
:10439000000000000000000000000000000000001D
:1043A000000000000000000000000000000000000D
:1043B00000000000000000000000000000000000FD
:1043C0000100000000000000FFFFFFFFFFFF0000F2
:1043D00000000000010000001000000000000000CC
:0843E0000024F40000000000BD
:04000005080000ED02
:00000001FF
